:400000000040002011000000090400000904000008B500F0FBF9C04638B51222214B1A6000F044FB204800F083FA012000F05EFB302000F08DFA1D4A1D4B1A601D4C8025FB
:40004000ED0525601C4A116802230B4313601B4A1B4B1A601B4A136808218B431360FA20C00000F0EFFA184800F0E2FAF0221201164B1A60164A174B1A6080221206164B7F
:400080001A608022D202154B1A604022144B1A600820144900F0A2FA082000F093FA256038BDC04630001040001BB7000600008004010B400C020B4078002E402D3E000033
:4000C0007C002E406CF02E40DC0500000003014040FF00800000014008010B4000010B402C0101400508000010B572B600222E4B1A6001322D4B1A70002410E02C486300EA
:400100001A195200821891881B195B001A5AC31858880004104300F0F1F90134E4B2012CECD92349081C0C30343100F0BDF980225200204B1A80FF3A1F4B1A701F4A204B0A
:400140001A6099231B041F4A1360A621C9031E4A11601E4A13601E4A136002231D4A13601D4A13601D4B197802220A431A701C4802783C218A4328390A430270197816226E
:400180000A431A700322174B1A60174A174B1A60D8221201164B1A60164A174B1A60FFF73BFF00F09BF910BD6CF02E401C700F408C28000000600F4002600F40330000EEAB
:4001C0000000024000500F4008500F4010500F4020500F402000104000800F4000700F4001700F40000004403600D8000800044008010440300C03000802044010B5064CBC
:400200002378002B07D1054B002B02D0044800E000BF0123237010BDF0000020000000008828000008B5084B002B03D00748084900E000BF07480368002B00D108BD064B8B
:40024000002BFBD09847F9E70000000088280000F4000020C80000200000000008B51A4A1368013B1360002B2CD10A3313605368013B5360002B0FD002DC013313D021E050
:40028000012B05D0022B1DD1002000F03DFB19E0002000F02DFB15E0002000F01DFB01220A4B1A600EE0012000F02EFB012000F01FFB012000F010FB0322034B5A600022DC
:4002C000024B1A6008BDC046CC0000200C01002038B5041C0D1C8380C280981A02F0F4F8A060E1602560201C38BDC046F0B585B0041C0D0C029203930AAB1878029E039F87
:4003000002F0E2F8321C3B1C01F094FA00220A4B00F06CFF061C0F1CA8B202F0D5F8021C0B1C301C391C00F039FC00F019FC80B2A04705B0F0BDC0460080664010B58AB0DF
:4003400000F03AFB284800F06BFB62B600F0DCF806A82649AF22D200254BFFF7B9FF02A82449254A254BFFF7B3FF012000F0CCFA012000F0BDFA012000F0AEFA204B1B68F4
:40038000002B02D0012B1ED0F8E7002000F098FA012000F089FA0A2000F032F9194C236801332360DBB2009306980799089A099BFFF79CFF2378009302980399049A059B4E
:4003C000FFF794FFDAE70024009406980799089A099BFFF78BFF009402980399049A059BFFF784FFCAE7C0465D020000190500005E1A000025050000F41A0000720600001A
:400400000C0100203C010020FEE7C04670B50F4E0F4D13E029686B68AC68002202E001C901C30432A242FAD1E868002202E0002102C304328242FAD11035013E002EE9D11C
:4004400002F0F4F9FFF77AFFFEE7C04601000000382B000008B50F4A136801218B43136000230AE0032B03D89A000B49505800E00A4899000A4A885001332F2BF2D9FFF7F9
:4004800033FE0022074B1A60024A116801230B43136008BD00001040000000000904000000000020C0000020F0B50025002711E0BB00C658F3B2FF22964308E06A008A1803
:4004C0001478A419527822700135013BDBB2002BF4D10137092FEBD9F0BDC0460323044A1360044A13600022034B1A607047C0463000304030003140000E3F4008B50A1C81
:40050000002102F0B9F908BD024A117880230B431370704773000F40014B18807047C04644100F40014B18807047C04664100F400230800803D00138FDD1C046C046C04621
:400540007047EFF3108072B6704780F31088704710B586B0041CFFF7F4FF0E4B1B6800930D4B1B680193033C0C4B1B5D02930C4B1B68039304AA0B4B04936B4605930A4B83
:400580001A600A490A4A11601B68FFF7DEFF06B010BDC04608010B4000010B40642A000030001040B6EA0000080010401700008004001040024B1B68012018407047C04633
:4005C0000C002E401F2318401E3B8340181C014B1860704700E100E001BE704738B5041C0D1C1F2802D90020FFF7F6FFA400034B9C4664442068256038BDC046400000209E
:4006000010B5041C06E0084B1868FFF791FF074B9C46644480231B029C42F4D8024B58686043FFF785FF10BDD40000200080FFFF08B5034B1B7A5843FFF77AFF08BDC04672
:40064000D400002010B5041C0F4A116801230B4313600E4A0E4B1A600E4A1368802109020B431360002809D100200CE00120FFF7DFFFFFF79FFF002804D1013C002CF5D1BC
:40068000102000E0002010BD60F02E400220000078002E4010002E40034B1868C0231B02184000D00120704700010B4010B50D4B1A6801218A431A601A68022082431A60F4
:4006C000094A10683024A043203C204310601068093CA043014311601A68802109060A431A6010BD00F02E4000FF2E4038B51D4B1B6801241C40002802D0012816D02BE076
:40070000184B19680122914319601968022081431960154B19682E3081432038014319601968093881430A431A6018E00D4B1A6802218A431A600C4A10680725A8430143BB
:400740001160116830208143103801431160196801220A431A6002E00020FFF73DFF201C38BDC04600F02E4000FF2E4008B5FFF7E8FE044A1368C02109020B431360FFF7D8
:40078000E4FE08BD00010B4010B5FFF7DAFE08490A68084B1A408024E40122430A600A6813408022120213430B60FFF7CEFE10BD00010B40FF3FFFFF70B5061CFFF7C1FE9C
:4007C000041CFFF769FF002803D0FFF7DDFF012500E000250848331C0340084A106808490840184310601368012D01D1FFF7BEFF201CFFF7AAFE70BD0404040010020B40D5
:40080000FBFBFBFF10B5244B1B685B0715D5234B5B685B070ED5224B596A042001401F4C62688A4362605A6A82435A629B69002B00D098470420FFF7BFFF174B1B685B05B6
:4008400018D5164B5B685B0510D5154B596A8022D2001140114842688A434260596A114A0A405A62DB69002B00D098478020C000FFF7A2FF084B1B685B030CD5074B5B6865
:400880005B0304D5064B1B6A002B00D098478020C002FFF791FF10BD10020B40E400002010010020FFFBFFFF04490A68FB231A408000F73B1840104308607047000104401A
:4008C00004490A68F7231A40C000EF3B18401043086070470001044004490A68DF231A404001BF3B18401043086070470002044004490A68F7231A40C000EF3B184010439E
:40090000086070470002044004490A68FD231A404000FB3B184010430860704700020440024A117880230B431370704770000F40014B18707047C04681000F40014B187897
:40094000C0B2704761000F40014B18807047C04640100F40014B188880B2704780100F40014B18807047C04600100F4008B501E0FFF7F0FFFFF7E2FF0307F9D408BDC046AE
:4009800010B50B4C201CFFF7DFFF201CFFF7E8FFFFF7D7FD074A117810230B431370FFF7D4FDFFF7E3FF0020FFF7C2FF10BDC0460180000091000F4008B5064B1B78002BD4
:4009C00004D1FFF7DDFF0122024B1A70FFF7A8FF08BDC04638010020014B58647047C0460000002010B5041CFFF7ABFD044A1168044B0B40A4031C431460FFF7A6FD10BDEC
:400A000000E400E0FF3FFFFF0222014B1A60704700E100E00222014B1A60704780E100E010B5041CFFF7F6FF201CFFF7D5FF0320FFF7D8FFFFF7E8FF10BDC046002243088F
:400A40008B4274D303098B425FD3030A8B4244D3030B8B4228D3030C8B420DD3FF22090212BA030C8B4202D31212090265D0030B8B4219D300E0090AC30B8B4201D3CB03D0
:400A8000C01A5241830B8B4201D38B03C01A5241430B8B4201D34B03C01A5241030B8B4201D30B03C01A5241C30A8B4201D3CB02C01A5241830A8B4201D38B02C01A5241FB
:400AC000430A8B4201D34B02C01A5241030A8B4201D30B02C01A5241CDD2C3098B4201D3CB01C01A524183098B4201D38B01C01A524143098B4201D34B01C01A5241030909
:400B00008B4201D30B01C01A5241C3088B4201D3CB00C01A524183088B4201D38B00C01A524143088B4201D34B00C01A5241411A00D20146524110467047FFE701B500205F
:400B400000F00CF802BDC0460029F7D003B5FFF775FF0EBC4243891A1847C0467047C04638B500220C4B041C0D1C01F01DFD002804D1201C291C01F071FC38BD064B002298
:400B8000201C291C01F0F0F801F068FC80231B069C466044F1E7C0460000E041F0B5454657464E4694464C000A03C90FE0B488460E1C1903470FC500480A6146490F014379
:400BC0006046520A1743C0005A00640D520DDB0F8446984500D1A7E0A01A002800DC01E1002A3DD163460B4300D0D4E06B0700D188E00F232B40042B00D183E02A1DAA4295
:400C0000AD4180236D427F191B043B404646151C002B00D17CE0CC4B01349C4200D1FDE03A1CCA4BED081A405007640552020543120B640D002112030B0D1B056405120BBD
:400C40001A436308C24CF60714401C43640064083443281C211C1CBC90469946A246F0BDB94B9C42C2D080231B041943382800DDECE01F2800DD21E120220E1C6346121A02
:400C80009640C340334366469640321C561EB24113430A1CC240EB1A9D42B6411D1CBA1A7642971B3B0200D497E07A02560A002E00D1B6E0301C01F081FC031C083B1F2B7F
:400CC00000DDB7E09E40371C28262A1C361AF240161C9D403E439C4200DDB2E01C1B621C1F2A00DDD8E01F23291C1C1B331CA540A340D1406C1EA541D64019430D43371C5E
:400D0000002473E780231B043B40464600D082E78D4BED0878070543FA089C4232D012036405120B640D85E7A31A002B00DC94E0002A3CD0844A944200D157E7802212046C
:400D40001143382B00DC05E163461943481E81410022C8B24019A8429B41051CD2195B42D7183B0239D5784B01349C4200D14CE10120764A6B083A4028401843D5070543A6
:400D8000570833E72B1C134348D080231B031A431203120B4EE70138002878D16346EE1AB5429B417A1A5B42D71A351C7AE7021C0A4300D11AE7013B002B00D0F2E04019DF
:400DC000A8429B41CA195B42D718051CC9E7131C334300D118E1171C351C46466B0700D007E795E700287AD1621C5205520D012A00DCFBE06246AA1A9542B6419146781A96
:400E00007242861A320200D493E06246551BAC458041CF1B40423E1A984648E70022002508E7281C01F0CAFB2030031C083B1F2B00DC47E7283885402E1C00259C4200DCC4
:400E40004CE7424AE41A1640371CCFE6634619434B1E99410022CBB21DE7002B00D0F2E0601C43055B0D012B00DCA4E0364B984200D121E163465C19AC429B41CF195B424C
:400E8000FA186408D50725435708041CAEE62E4B9C4200D0EAE6A9E6211C331C1F39CB40191C202A00D182E03F231C1BA64035436E1EB54100270D4300248EE7031C0E1C64
:400EC000203BDE40202874D040231B1A99400B1C62461343591E8B4100223343DBE6002C50D0194CA24200D1A8E08024240440422743382800DDD9E01F2800DD39E120249D
:400F00003E1C241AA640B0462E1CA146C640444626434C46A5406C1EA541C74035436046451BCF1BAC45894149427F1A141C9846B8E64B464D46334300D0B8E600260027DD
:400F400000240025E4E6C046FF070000FFFF7FFFFFFF0F801F2B5BDC2022081CD21A9040814660469246D8404A4610438146524660469040021C501E8241484610430A1C3B
:400F8000DA40E7E63C1C2C4358D0C043002851D16046451BAC458041CF1B40423F1A141C98467FE68F4A944200D0CAE61EE600267DE700238CE73B1C2B43002C00D0BDE06D
:400FC000002B00D1F5E063460B4300D10EE663465B19AB428041CA19404217183A0200D4FCE0814A1D1C17400134FFE53A1C2A43002C51D1002A00D085E062460A4303D06D
:401000000F1C65469846F1E50026002700257FE6181C0A1C2038C240202B00D1A7E04020C01A8140081C63461843411E8841104300228FE66B4CA24200D05AE70F1C654641
:40104000141C9846D2E5002C3AD1381C284371D0DB43002B18D0634882426BD0382B00DD9DE01F2B00DDA7E020203C1CC01A8440A1462C1C8246DC404846044350468540B5
:40108000681E8541DF402543654465459B417F185B42FF18141C64E6002A19D162460A4377D00F1C654698464E4C9FE53D436F1EBD410027EDB232E7041C0027002527E6E4
:4010C0004848824236D0802000045B420743C5E762460A4349D08024ED087807FA0824032843224209D0CE08264206D162464F07381CD20810439846321CD200470F174326
:40110000C500384C72E562460A4300D16EE56246AE1AB5429241781A5242821A100200D455E66246551BAC458041CA1B4042171A98465BE50F1C6546141C57E5002B34D0E8
:4011400063460B4311D08024ED087807FA08240328432242D1D0CB082342CED162464F07381CD20810431A1CC7E71E4C3EE5002059E7041C3E1C203CE640341C20282BD030
:401180004026301A87403D436F1EBD4100272543C5E680270026FF03124C0025B8E53D436F1EBD410027EDB26EE70F1C65460D4C1CE50F1C654619E51C1C381C203CE04052
:4011C000041C202B0CD04020C31A9F403D436F1EBD410027254357E70027D4E71D1CFCE50027F3E7FF070000FFFF7FFFF0B55F4656464D464446F0B40F0387B098464D001A
:401200003B0BCC0F061C924681469B466D0D01946BD0664B9D4235D080275B467F031F43F3009946624BFF00400F9C4607430023BB46002665440093424617035000D20F8E
:4012400053463F0B400D904600D172E0574A904267D080235B031F435346554A5B0FFF001F43944653460021DB0060444246624092462D1A0E430F2E00D9A1E04D48B600A6
:40128000805987465B461E4300D076E000239B469946023308260093CEE799464346BB4601930091009B022B6BD1019B9A46002153460122002789461A403C4B00213F03AD
:4012C0000C0D24053F0B27433B4C1B0527401F437F00D2077F0817434846391C07B03CBC90469946A246AB46F0BD03433ED05B46002B00D19CE1584601F060F92823311C94
:401300001B1A021C5F46D940083A97400B1C96403B439B46B1460023284D00262D1A00938AE7524603213A43A0D10027002302219CE752463A4315D0002F00D185E1381CD9
:4013400001F03CF9021C28215046891A131CC8405146083B99409F400B1C074317480021801A83E70027002301217FE700239B4699460133042600935EE703230C26009313
:401380005AE7032B00D13CE2012B00D0BFE11A1C019B1A4000210023002789468EE700238027994600223F03004B87E7FF07000001FCFFFF942A0000FFFF0F800DFCFFFF3F
:4013C000BB4500D951E100D14CE14A46039200225C469046013D180E3F0238431B020193030C994603041B0C4946061C201C1F1C0093FFF723FB021C7A4302904946201C31
:40140000171CFFF7A1FB039B09041B0C19438F420CD9029B8919013B8E4200D952E18F4200D84FE1029B8919023B0293CC1B201C4946FFF703FB009F834647434946201C5F
:40144000FFF782FB039A0B041404240C23439F420DD95A469B19013A9E4200D930E19F4200D82DE10222524294469B19E344029ADB1B17045A463A439346019C170C220CBA
:40148000101C04925A4611042204120C141C090C7C4305924A43414347436118100C09188C4203D980204002844667440C0C12040804120C3C198118A34200D2E5E000D1F1
:4014C000DFE01F1B43465C1AA04592415242BF1AB74200D10EE1381C4946FFF7AFFA009B029043434946381C9846FFF72DFB230C0F041F43B8450CD9029BBF19013BBE42CB
:4015000000D9FBE0B84500D8F8E0029BBF19023B02934346FF1A4946381CFFF78FFA009B039043434946381C9846FFF70DFB24040904240C214388450CD9039B8919013B95
:401540008E4200D9DCE0884500D8D9E0039B8919023B03934346C91A029B039A1B04059C1A43100C13049146221C049F1B0C5A4344437B437843E318170CDB199C4203D957
:4015800080246402A44660441C0C12041B04120C00199B18814200D296E000D1FCE04A4601231A4391469B4BEB18002B00DC99E04A4652070AD00F2249460A40042A05D073
:4015C0000431494592418946524293445A46D20106D55A46904B1A4080239346DB00EB188E4A934200DD62E64A465946D208490711435A4689465702514601225B053F0BF3
:401600005B0D0A405AE680205A460003024208D0074206D107433F0399463F0B4246804B4CE65F4607433F033F0B221C7C4B45E600F0C4FF031C2030272800DC5EE6083B80
:401640009E400023B346994665E6504600F0B6FF021C2032272A00DC75E657460838874000237BE6994500D2AFE65A46594654084A46C8075208024303924A46D207904639
:40168000A9E60027884500D31CE7019F5A46BC46E044B845BF417F42BF19FF18013ABE4206D2BC425FD800D19FE03F1B934609E7B742FAD1019B4345F3D9371B934601E73C
:4016C0009346D4E60293B1E64A468919013A8E4218D99146814200D061E7019A9A4200D05DE760E74F4F7F1B382F13DD012253461A404FE601235B42994654E7029308E740
:40170000039327E788423CD874D0914647E7019B9A4648E71F2F44DC434B4A469C465B466544FA40AB4013434A46AA40151C6A1E95415A46FA402B43171C5A0709D00F2211
:401740001A40042A05D01A1D9A429B415B42FF18131C3A023ED55346012200211A40002701238946AAE502235B429C46019AE3449446E04490459B415B429B19DF193F1B53
:40178000A0E6019F4A467C00BC42BF417F42BF19023AC91901949CE7002B95D1002201929BE75A46214B5B1BDA40202F27D0204B9C465B466544AB4049460B43591E8B41DE
:4017C0001343072200271A4007D00F2200271A40042AB8D17A077F023F0BDB0813439946012253461A40002368E54145BBD89346002767E6019C9C42C3D391466DE70023FA
:40180000DAE780275B463F031F433F033F0B019A034B53E5FF030000FFFFFFFEFE070000FF07000002FCFFFF1E040000E2FBFFFF3E040000F0B55F4656464D464446F0B464
:40184000051C061C080387B099464F00030BCC0F92469B467F0D019467D06C4B9F4236D080205B4640031843C0006B0F1843684B83469C4600239846EE00674400934B468D
:4018800049461D03C90F5B0052462D0B5B0D894600D16EE05D498B4264D080205C4940038C4600210543ED00500F0543D20063444846FF187B1C9A46009B604002900B4372
:4018C0000F2B00D9ACE053489B00C3589F465B461D4300D082E00823009300239B46023300269846CBE7029B01934346022B59D1012400250026019B1C40444B00212D03DA
:401900000A0D12052D0B1543434A1B0515401D436D00E4076D082543301C291C07B03CBC90469946A246AB46F0BD2B434ED05B46002B00D185E1584600F040FE021C282313
:40194000291C9B1A161C5846D940083EB0400B1CB54003439B462E1C0023304F0093BF1A98468CE7514629432ED10025002202219EE75146294323D0002D00D154E1281C04
:4019800000F01CFE031C28215046C91A1A1CC8405146083A914095400A1C05431F480021C31A85E7032B00D1C2E1012B00D06DE14446019B00251C40E4B2002300269DE74A
:4019C00000250022012173E7032171E70423009300239B4601330026984650E70C230093093B98464BE7802500242D030026074B84E74B46AB46161C0193884675E7029B7A
:401A0000AB46161C019388466FE7C046FF07000001FCFFFFD42A0000FFFF0F800DFCFFFF330C3604360C9C46331C140C1204120C534398466346534399466346634301937D
:401A4000331C41466343090C4B445B18994505D9802040028146019949440191190C039141460904090C1B045B1804932B0C9846331C2D04290C4B43604600934346654665
:401A800058435E43009B4D431B0C9946AE194E448446B54203D980235B029946CC44350C2B1C0398634484460593009B36041B041B0CF3189C446046039058460504060CB0
:401AC000280C84465043351C81466046654344434846000C8346724314195C44A24203D98022520293465D44220CAD184A461204120C24044046A41862464A4371434643C0
:401B000060460096464670438046100C84468844E044414505D9802149028C46009961440091019803998446614499429B415B4299460598434684461204120C1B049B18D0
:401B400063449C46AB4683429B4140460A19CC44A2428941E344CC45B6415C46000C8046494276425B426418334398448C428941AB459B4149425B4219430D1C009B45445D
:401B8000EE187602E50D2E43B346049B56021E43731E9E415B46D20D324366021643DB010AD50123334076081E435B46DB071E435B465B089B465746634BFB18002B5ADD13
:401BC000720709D00F223240042A05D0321DB242B6417642B344161C5A46D20106D55A465A4B1A4080239346DB00FB18584A934234DD0124029B00251C400026554B7DE687
:401C000080205B460003034208D0054206D105432D032D0B4C46161C4E4B6FE65D4605432D032D0B4B4B69E6504600F0C7FC031C2033272B00DCA6E6554608388540002254
:401C4000ACE6281C00F0BAFC021C2032272A00DC75E6083885400026AB467DE65A46F608520716435A4601245502029A5B052D0B5B0D144042E6384DED1B382D0ADD0124EF
:401C8000029B00251C400026002337E6019B5746029391E71F2D25DC304B321C9C466744BE405B46BB40371CEA407E1EB74113433B431E1C5B46EB401D1C730709D00F2374
:401CC0003340042B05D0331DB342B6417642AD191E1C2B0220D50124029B00251C40002601230BE65A461E4BDB1BDA40131C202D1CD01C4A94465A466744BA40171C3E431F
:401D0000721E96411E4307230025334007D00F2300253340042BD6D16B076D022D0B0124F6081E43029B1C400023E7E50027E6E780255B4601242D031D43019B2D032340FF
:401D40001C1C2D0B034BD9E5FF030000FFFFFFFEFE070000FF07000002FCFFFF1E040000E2FBFFFF3E040000F0B54D4644465F465646F0B40E1C111C3203520A470F174365
:401D8000C5001A035800DB0F9946520A4B0F83B01A43CB000193CF4B7400F60F640DB046400D984200D1E8E00123494659400B1C9E4200D1B1E0261A002E00DC1CE100289D
:401DC00042D1131C01990B4300D0E6E06B0700D18EE00F232B40042B00D189E02A1DAA42AD418023012641466D427F191B043B400E40151C002B00D183E0B64B01349C4227
:401E000000D116E13A1CB44BED081A405007640552020543120B640D002112030B0D1B056405120B1A436308AC4CF60714401C43640064083443281C211C03B03CBC90469F
:401E40009946A246AB46F0BDA24B9C42BED080231B041A43382E00DD03E11F2E00DD3FE12020831B9946131C49468B409C46019B6046F34003430198F2408840011C481E1B
:401E800081410B43EB1A9D4280411D1CBA1A4042171A3B0200D4A8E07A02560A002E00D1CAE0301C00F08AFB031C083B1F2B00DDCBE02822291C121AD1409E400A1C9D40ED
:401EC00032439C4200DDC8E01C1B671C1F2F00DDEDE01F23291C1C1B131CA540A340F9406C1EA541FA4019430D43171C00246DE78023012642461B043B401640002B00D02C
:401F00007BE7744BED0878070543FA089C423BD012036405120B640D7EE7231A9A46002B00DCA5E0002844D06A48844200D14DE78020000402435346382B00DC1CE1019BAC
:401F40001A43511E8A41D1B200224919A94280410D1CD219404217183B0246D55D4B01349C4200D169E101205B4A6B083A4028401843D5070543570828E7131C01990B4305
:401F800000D111E74B4613E72B1C134351D080231B031A431203120B3EE7013E002E00D080E0691A8D429B41BA1A5B42D71A0D1C6FE7101C019B184300D107E701235B424B
:401FC0009C46E2445346002B00D002E1019BD2195919A9429B415B42D7180D1CBCE76346034300D128E1071C65466B0700D0F0E6012643461E4084E7002E00D081E0601C47
:402000004005400D012800DC07E10199681A84466545B641B81A7642861B300200D4A1E08C464D1BAC458941D21B4942561A984634E700220025EFE6281C00F0BFFA2030B9
:40204000031C083B1F2B00DC33E7021C283A95402A1C00259C4200DC36E71F4FE41A1740B4E6019B1A43511E8A41D3B2002209E7002B00D001E1601C43055B0D012B00DCEF
:40208000B0E0144B984200D11EE1019BD2195919A9429B415B42D2184908D5070D435708041C93E60B4B9C4200D0D3E68EE6211C131C1F39CB40191C202F00D18EE03F23A6
:4020C0001C1BA24015436A1E954100270D4300248BE7C046FF070000FFFF7FFFFFFF0F80331C101C203BD840202E79D040239B1B9A40131C019A1343591E8B4100220343AC
:40210000C0E6002C53D0C74CA04200D1B0E0802471428946240427434946382900DDCDE01F2900DD59E120243E1C611A8E408A46B04649462E1CCE405146B4468D40644627
:402140004646494626436C1EA541CF4035430199D71B8C464D1BAC4592415242BF1A041C984696E663466546334300D096E60026002700240025C4E61F2B61DC2020C31A79
:402180009B46131C59468B4051469946019BCB409C464B46604603439C465B46019999406346481E814119435346DA40CDE63C1C2C435DD0F1438946002955D10199D21BD3
:4021C0008C464D1BAC4589414942571A041C98465FE69448844200D0ADE6F7E5002271E7002387E73B1C2B43002C00D0DAE0002B00D113E1131C01990B4300D1E6E549193F
:40220000A9429B41D2195B42D7183B0200D421E1854B0D1C1F40041CD8E5381C2843002C40D1002800D083E0101C0199084303D0171C0D1C9846C9E500260027002560E63D
:402240005046131C2038C340181C5346202B00D1C1E0402351465B1A9A40019911434A1E91410022014370E66E4CA04200D053E7171C019D041C9846A8E5002C28D13C1C08
:402280002C4300D18AE0DB439A46002B00D082E0019BD2199C4665449D42894149425718041C59E600285BD1101C0199084300D1A4E0171C0D1C98465A4C87E53D436F1EF2
:4022C000BD410027EDB242E7041C0027002518E6544CA04262D0534680245B429A46240427435346382B00DD8EE01F2B00DD9DE02024E31A9B463B1C59468B405146994643
:402300002B1CCB409C464B46644623439C465B469D4063466C1EA541CF401D43019BBF189C4665449D4292415242BF18041C13E6101C0199084300D148E5681A844685428A
:402340008041BE1A4042301A060200D447E68C464D1BAC458941D21B4942571A984635E5101C0199084334D080247807ED08FF0824032843274208D0D608264205D1C90825
:4023800052070A43101C371C9846FF00420F1743C500244C1AE5234CA042A2D1171C019D041C13E5002B35D0131C01990B4310D080247807ED08FF08240328432742E4D09A
:4023C000D3082342E1D1C90852070A43101C1F1CDBE7144CFAE400223FE74C463E1C203CE6404946341C202932D04026761AB7403D436F1EBD4100272543A8E6802700264B
:40240000FF03084C00257CE53D436F1EBD410027EDB283E7171C019D024CD7E4171C019DD4E4C046FF070000FFFF7FFF54463B1C203CE3401C1C5346202B0DD04023514637
:402440005B1A9F403D436F1EBD410027254365E70027CDE70D1CC8E50027F3E70B0330B5134C1A0B4B00051C5B0DC90F0020A34210DD104883420EDC80200F4C40030243D1
:40248000E41A1F2C0ADD0D48C31ADA40131C48424340581830BD0A4BC818FBE7281CE040084CA44663449A40131C0343EFE7C046FE0300001D04000033040000130400000C
:4024C000FFFFFF7FEDFBFFFF38B5041E16D0C50F00D04442201C00F071F8174B1B1A0A2821DC021C211C153291400A1C0B21081AC4405B052403240B5B0D03E000250023CC
:40250000002400220021101C24030A0D1205240B14430A4A1B0514401C436400ED0764082C43211C38BD0B3884405B052403240B5B0D0022E6E7C0461E040000FFFF0F80D8
:402540008446101C62468C46191C634600E0C0461FB500F005F9002801D40021C8421FBD10B500F049F84042013010BD10B500F0F7F8002801DB002010BD012010BDC04662
:4025800010B500F0EDF8002801DD002010BD012010BDC04610B500F073F8002801DC002010BD012010BDC04610B500F069F8002801DA002010BD012010BDC0461C21012339
:4025C0001B04984201D3000C10391B0A984201D3000A08391B09984201D30009043902A2105C40187047C04604030202010101010000000000000000F0B55F464D464446E8
:402600005646F0B41F035C00DB0F99461B4B0E034D00C90F8446360B6D0D8B4690463F0B640D9D420CD0154B9C4210D00123A54214D0181C3CBC90469946A246AB46F0BD61
:40264000311C01230143F4D10C4B9C42EED13A430123002AEDD10123A542EAD1BE42E8D1C445E6D1CB4506D0002DE2D13043031C581E8341DDE70023DBE7C046FF070000DD
:40268000F0B5574645464E46E0B40F034E00C90F8A4632491D035C0084463F0B760D90462D0B640DDB0F8E420FD08C4239D0002E10D13843414241418946002C27D12A43B1
:4026C00025D1002000290ED108E0391C01432ED1B44226D0002C0BD09A450DD05346594201231943081C1CBC90469946A246F0BD2A43F3D09A45F1D1A642EFDC1ADA504685
:4027000041424841012341421943081CEBE74A46002AE1D058425841012241421143081CE1E7291C114302D1002EC2D0D4E702204042D8E7AF42D1D809D00020AF42D2D29E
:40274000504641424841012340421843CBE7C445C4D80020C445F3D3C5E7C046FF070000F0B55F464D46444656468046F0B4061C0803000B84462C484C001F035D00C90F32
:40278000640D8B4691463F0B6D0DDB0F844212D0854225D0002C14D161460E4370424641002D35D0002E21D058425841012143420B43181C0EE06146022031430AD1A54212
:4027C0000ED0002D12D13A4310D15B46594201231943081C3CBC90469946A246AB46F0BD391C02201143F5D1002CD5D09B45ECD1AC42EADC05DBBC45E7D80FD00020BC4527
:40280000E8D2584641424841414201200843E1E73A43C7D10020002EDCD1D6E7C845D4D80020C845EDD3D5E7FF0700000E4B70B500251E1C0D4CE41AA410A54204D0AB00FA
:40284000F35898470135F8E700F064F9084B00251E1C084CE41AA410A54204D0AB00F35898470135F8E770BD202B0000202B0000202B0000282B0000031C8218934202D0AE
:4028800019700133FAE770470000000000300F40000400400F40000402000F4034300F4015310F4045320F402F330F4004400F4008410F4002420F4002430F4002600F409A
:4028C000810D830F22012E01340136013E40405449FF4AFF4BFF4F0150185280580B5A0B5B0A5C095D995F016040624064406540668068806A806C806E80C054C5ECC602F1
:40290000C807C9FFCAFFCBFFCD83CE03CF01D018D401DA08DB08DD99DF01E040E240E440E540E680E880EA80EC80EE80108219801B204280468048024C024D014F0454800C
:4029400056805D815F04700278057F01C409D081D218D6D0DE134050410249FF4AFF4BFF4DA04F04501856085A045B045D905F01604062C06440654066C068C06AC06CC0C5
:402980006EC0820E8D08920195029B0C9F03A204A608AA02B008B104B204B301B402B508B601B702BE10C010C106C5D5C601C702C817C9FFCAFFCBFFCDAFCE0FCF04D018BA
:4029C000D280D407D804D904DA04DB04DF01E040E2C0E440E540E6C0E8C0EAC0ECC0EEC000010B4010A8180119081A041B4120422108221030A0310838403C803E40400186
:402A00004604482949814F805088520459815A245E405F206405670273408440850887208B0197029C05B720C008C208C40ECC0ECE08D028D214D63FD830E282EA40538015
:402A40005701D420D6206C0187018B809002A781B401DA80E6102780C80187809B80100111010000030405060708090A0B0C0E0F101112131415161718191B1C1D1E1F20BA
:402A800021222325262728292A2B2E2F3031323334350000C0130000AE120000941300009A120000941300009E130000941300009A120000AE120000AE1200009E1300004A
:402AC0009A120000A4120000A4120000A412000006160000201A0000FE190000FE190000F2190000E6180000E6180000E6190000F2190000E6180000E6190000E618000078
:402B0000F2190000EA180000EA180000EA180000001C0000F8B5C046F8BC08BC9E4670472502000055040000F8B5C046F8BC08BC9E467047FD010000482B0000C800002003
:402B40002800000050000000000000000A000000030000000000C05D80BB000030000000006CDC02F000000004040400000000000000000000000000000000000000000002
:402B80000000000000000000000000000000000000000000000000000000000000000000000000000000000000000000000000000000000000000000000000000000000015
:402BC00000000000000000000000000000000000000000000000000000000000000000000000000000000000000000000000000000000000000000000000000000000000D5
:402C00000000000000000000000000000000000000000000000000000000000000000000000000000000000000000000000000000000000000000000000000000000000094
:402C40000000000000000000000000000000000000000000000000000000000000000000000000000000000000000000000000000000000000000000000000000000000054
:020000040001F9
:0200000490303A
:020000004BD1E2
:0200000490402A
:4000000000000000000000000000000000000000000000000000000000000000000000000000000000000000000000000000000000000000000000000000000000000000C0
:400040000000000000000000000000000000000000000000000000000000000000000000000000000000000000000000000000000000000000000000000000000000000080
:0200000490501A
:0C00000000020E34119E00010E425D6FE4
:0200000490600A
:0100000001FE
:00000001FF