:400000000040002011000000750A0000750A000008B500F031FDC04638B51222254B1A6000F072FE244800F0BBFD012000F08CFE302000F0C5FD214A214B1A60214C8025F1
:40004000ED052560204A116802230B4313601F4A1F4B1A601F4A136808218B431360FA20C00000F00FFE1C4800F002FEF02212011A4B1A601A4B1B4A1A609C2149021A4AC6
:4000800011601A4A1A6080221206194B1A608022D202184B1A604022174B1A600132174B1A600820164900F0D1FD082000F0C2FD256038BD30001040001BB700060000804B
:4000C00004010B400C020B4078002E402D3E00007C002E406CF02E40DC050000000301400000014040FF00800403014041FF008008010B4000010B402C01014004010140D1
:40010000610E000010B572B60022354B1A600132344B1A70002410E0334863001A195200821891881B195B001A5AC31858880004104300F019FD0134E4B2012CECD92A4996
:40014000081C0C30303100F0E5FC80225200274B1A80FF3A264B1A70264A274B1A609922264B1A6099231B04254A1360A621C903244A1160244A1360244A1360244A1360E5
:400180000223244A1360244A1360244A1078022101431170224C21783C208143283801432170107816210143117003211D4A11601D491E4A11601E4A13601E491E4A116044
:4001C0001E491F4A11601F4A136031211E4A11601E4A1360FFF720FF00F0B6FC10BDC0466CF02E401C700F409C60010000600F4002600F40330000EE0000024000030240A8
:4002000000500F4008500F4010500F4020500F4030500F402000104000800F4000700F4001700F4000000440B611D8000800044000010440900D030008010440300C0300DD
:400240000802044000030440080304401803044010B5064C2378002B07D1054B002B02D0044800E000BF0123237010BD4010002000000000045E010008B5084B002B03D0E9
:400280000748084900E000BF07480368002B00D108BD064B002BFBD09847F9E700000000045E010044100020A80B002000000000F0B585B0041C0D0C029203930AAB187852
:4002C000029E039F04F0FEFB321C3B1C03F0B0FD00220A4B03F06EF9061C0F1CA8B204F0F1FB021C0B1C301C391C02F03BFE02F01BFE80B2A04705B0F0BDC046008066406F
:4003000084B000B583B004900591069207930F4804A9202204F06BFC002000F0F3FD002000F0FCFD002000F0BFFE04AB9B7A0093089809990A9A0B9BFFF7BAFF0120049B7C
:40034000984703B008BC04B01847C0469021002010B5041C430703D5012000F003FE02E0002000F0FFFDA30703D5012000F0EEFD02E0002000F0EAFDE30703D5012000F00C
:40038000D9FD02E0002000F0D5FD10BD10B50F4B1870002802D0012810D015E000F07CFE0A4B58700A4C0B4B23600720FFF7D0FF03232371012001F085F905E0002001F055
:4003C00081F9054A024B1A6010BDC0465C100020AC0B0020085E0100185E010008B5124B1B78002B1FD1114A9368013B9360002B19D1FF3393601379013BDBB21371012BCD
:4004000007D0002B09D0022B0DD10320FFF7A0FF09E00120FFF79CFF05E00020FFF798FF0120FFF7B3FF08BD5C100020AC0B002038B5041C0D1C8380C280981A04F042FBA2
:40044000A060E1602560201C38BDC04670B584B0041C161C1D1C08AB1B8809AA12880AA800882160E680A5802081608168460B99FFF7DEFF201C10306946102204F0B7FB08
:40048000201C04B070BDC04683B2074A9288934201D9D0B204E0044AD288934200D2D0B2014B58817047C04690210020F0B587B04C4BDD682B781A1C313A022A00D987E078
:4004C0006A78202A00D083E0474A464B1A60281C04F09EFB441EE4B22B78322B11D0332B1DD0312B28D1414D291C10316846102204F07DFB28686968AA68EB68FFF700FF9C
:400500001AE03B4D291C10316846102204F06FFB28686968AA68EB68FFF7F2FE0CE0354D291C10316846102204F061FB28686968AA68EB68FFF7E4FE002600220023049206
:400540000593012522E0274BDB681A5D2A4B1B689B185B785B0715D5303A171C00202749049A059B01F0BAF804F076FA021C7A43B618049805990022214B02F0F3FC04906D
:40058000059101E000250324013CE4B2022CDAD8144BDB689B782D2B01D1764212E0164A1268D218527852070CD5303B1C1C00201249049A059B01F091F804F04DFA031C44
:4005C0006343F618002D08D0F0B2FFF75DFF04E0002B02D00B4A034B1A600B4A014BDA6007B0F0BDAC0B0020285E0100B0210020D0210020F0210020D40F00200000244019
:400600000000F03F345E0100045F0100F0B5474680B48CB062B600F06BFD674800F058FE002869D1654800F031FE654800F02EFE644800F02BFE644800F028FE634800F074
:4006400025FE634800F022FE04F01EFB00F0E2FC604800F013FD62B600F08CFA0020FFF777FE00F019FD5C4B58705C4C5C4B98460093AF26F60001965A250295594F039711
:4006800004A859490022B423FFF7E0FE201C04A9202204F0ACFA4346009301960295534B039304A850490022B423FFF7CFFE504804A9202204F09BFA434600930196029581
:4006C000039704A84B490022B423FFF7BFFE4A4804A9202204F08BFA211C10316846102204F085FA20686168A268E368FFF708FE0120FFF74BFE03E0404800F0C7FDFEE7A3
:400700003F4B1B78012B36D0042B34D0032004F0B3FA041C72B606F043FA032C16D1042801D0062826D100F021FD364B1B6880221202134000D00123C318002B1AD100F0D0
:400740002BF900F0C9FA00F01FF913E0022811D000F00CFD2B4B1B6880221202134000D00123C318002B05D100F016F900F0B4FA00F00AF962B600F049F804F085FA164B24
:400780001B78002B02D0012B0CD0B9E7FFF78EFE1D4B9A7A0092186959699A69DB69FFF787FDADE700F078FC0B4B5B789842A7D00020FFF7EBFDA3E765080000445E010063
:4007C000845E0100C45E0100085F0100245F0100405F0100DD0300005C100020B02100205E1A0000850B0000050F0000910B0000D0210020A9100000F02100205C5F01009B
:4008000084220020080224409021002000B585B003AB009302236A469380D3800D3313810D4B1B78022B02D0042B0CD012E068460A49002210F03CFC094B1B78012B09D04B
:4008400000F0B2F806E003AB00221A705A70002000F090FD05B000BD842200208C2200208822002008B5031C283B262B45D8081C9B00224AD3589F46214800F007FD00F032
:4008800075FC204B1B6880221202134000D00123C318002BF3D100F03BFC00F06FFC00F047FC00F025FC28E0174800F0EFFC24E000F034F821E04B88162B02D8134A13800B
:4008C0001BE01722114B1A8017E08B890F2B14D1043000210E4A313310F020FC00280CD10B4A13785078000218430FF0A9FE094800F0CCFC084800F0C9FC08BD945F010000
:40090000306001000802244048600100BC0B00208C220020646001008060010070B58389112B29D10589002424E0144B1B780D2B0ED043681B5D114A13700D2B19D0002B42
:4009400017D0111C52680E4EB35401324A6010E00B4A0C4B1A600022084B5A60002303E00021074AD1540133632BF9DD0022034B1A700134AC42D8D370BDC0466010002064
:4009800018220020B80B0020024A136804218B4313607047C80F2440024A116804230B4313607047C80F2440F0B585B000AF2B4B1B880433DB08DB006A46D31A9D466D4672
:4009C000274B186804F024F9061C84B2032C02D9FFF7DAFF01E0FFF7DFFF002C38D0B6B21E4B1B88DA1E964206DBFA2189001D4A1180DC1EA4B203E01A4A1388013B138018
:400A0000002C25D0FA229200164B1A80002305E0134A1268D25CEA540133DBB29AB2A242F6D37D603C810E23BB81FFF7ADFF0E4A1378507800021843391D0FF0ABFD041C19
:400A400004F022F9002C03D0084B1B78022BEED0074A034B1A60BD4605B0F0BDBC0B0020AC0B0020BE0B00208C22002084220020045F0100FEE7C04670B50F4E0F4D13E0BE
:400A800029686B68AC68002202E001C901C30432A242FAD1E868002202E0002102C304328242FAD11035013E002EE9D104F06AF8FFF7ACFDFEE7C04601000000586701003B
:400AC00008B50F4A136801218B43136000230AE0032B03D89A000B49505800E00A4899000A4A885001332F2BF2D9FFF70BFB0022074B1A60024A116801230B43136008BDAD
:400B00000000104000000000750A000000000020C0000020F0B50025002711E0BB00C658F3B2FF22964308E06A008A181478A419527822700135013BDBB2002BF4D10137CC
:400B4000082FEBD9F0BDC0460323044A1360044A13600022034B1A607047C0463000304030003140000E3F4008B50A1C002104F047F808BD024A117880230B4313707047AE
:400B800071000F40014B18807047C04640100F40014B18807047C04660100F40000000000230800803D00138FDD1C046C046C0467047EFF3108072B6704780F31088704765
:400BC00010B586B0041CFFF7F4FF0E4B1B6800930D4B1B680193033C0C4B1B5D02930C4B1B68039304AA0B4B04936B4605930A4B1A600A490A4A11601B68FFF7DEFF06B029
:400C000010BDC04608010B4000010B406862010030001040B6EA0000080010401700008004001040024B1B68012018407047C0460C002E401F2318401E3B8340181C014B5D
:400C40001860704700E100E001BE704738B5041C0D1C1F2802D90020FFF7F6FFA400034B9C4664442068256038BDC0464000002008B5034B1B7A5843FFF792FF08BDC0463A
:400C8000C00B002010B5041C0F4A116801230B4313600E4A0E4B1A600E4A1368802109020B431360002809D100200CE00120FFF7DFFFFFF7B7FF002804D1013C002CF5D167
:400CC000102000E0002010BD60F02E400220000078002E4010002E4008B5FFF76AFF044A136804218B43136030BFFFF766FF08BD10ED00E0034B1868C0231B02184000D086
:400D00000120704700010B4010B50D4B1A6801218A431A601A68022082431A60094A10683024A043203C204310601068093CA043014311601A68802109060A431A6010BD58
:400D400000F02E4000FF2E4038B51D4B1B6801241C40002802D0012816D02BE0184B19680122914319601968022081431960154B19682E308143203801431960196809382D
:400D800081430A431A6018E00D4B1A6802218A431A600C4A10680725A84301431160116830208143103801431160196801220A431A6002E00020FFF747FF201C38BDC04668
:400DC00000F02E4000FF2E4008B5FFF7F2FE044A1368C02109020B431360FFF7EEFE08BD00010B4010B5FFF7E4FE08490A68084B1A408024E40122430A600A681340802250
:400E0000120213430B60FFF7D8FE10BD00010B40FF3FFFFF70B5061CFFF7CBFE041CFFF769FF002803D0FFF7DDFF012500E000250848331C0340084A1068084908401843A0
:400E400010601368012D01D1FFF7BEFF201CFFF7B4FE70BD0404040010020B40FBFBFBFF10B5244B1B685B0715D5234B5B685B070ED5224B596A042001401F4C62688A435A
:400E800062605A6A82435A629B69002B00D098470420FFF7BFFF174B1B685B0518D5164B5B685B0510D5154B596A8022D2001140114842688A434260596A114A0A405A625C
:400EC000DB69002B00D098478020C000FFF7A2FF084B1B685B030CD5074B5B685B0304D5064B1B6A002B00D098478020C002FFF791FF10BD10020B40D00B00206810002027
:400F0000FFFBFFFF04490A68FB231A408000F73B18401043086070470001044004490A68DF231A404001BF3B18401043086070470001044004490A68DF231A404001BF3B06
:400F400018401043086070470002044004490A68FD231A404000FB3B18401043086070470002044004490A68F7231A40C000EF3B184010430860704700020440024A1178A0
:400F800080230B431370704772000F40014B18707047C04683000F40014B1878C0B2704763000F40014B18807047C04644100F40014B188880B2704784100F40014B18804B
:400FC0007047C04604100F4008B501E0FFF7F0FFFFF7E2FF0307F9D408BDC04610B50B4C201CFFF7DFFF201CFFF7E8FFFFF7E1FD074A117810230B431370FFF7DEFDFFF717
:40100000E3FF0020FFF7C2FF10BDC0460180000093000F4008B5064B1B78002B04D1FFF7DDFF0122024B1A70FFF7A8FF08BDC04690100020014B58647047C0460000002047
:4010400010B5041CFFF7B5FD044A1168044B0B40A4031C431460FFF7B0FD10BD00E400E0FF3FFFFF0222014B1A60704700E100E00222014B1A60704780E100E010B5041C6F
:40108000FFF7F6FF201CFFF7D5FF0320FFF7D8FFFFF7E8FF10BDC046024B18688007C00F7047C0460401044004490A68F7231A40C000EF3B1840104308607047000104404A
:4010C00008B500F0BDF808BD08B500F0CBF808BD08B500F063F808BD08B5044A1368802109060B431360FFF7EBFF08BD0000244008B5064B1B78002B04D1FFF7E9FF012225
:40110000024B1A70FFF7E8FF08BDC0469210002008B5FFF7D9FF044A13685B005B0813600022024B1A6008BD00002440880F2440054B1A68802149020A431A601968034A89
:401140000A401A607047C04604032440FFFFFEFF044B1B681F221340082BF9D0024B18607047C0460802244040022440024B1B681F2018407047C04608022440054B1A682C
:40118000802149020A431A601968034A0A401A607047C04604022440FFFFFEFF10B5154A154B1A600023154A13600121144A1160144A15480260072414480460144803601D
:4011C0001448016014490A60144A13600421144A1160144A1360144A1360144A1360144A1360144A1360144A13601268134B1A8010BDC0460F000002000024404000244062
:40120000480024400700008000032440040324401003244044002440000224400402244050002440880E2440C80E2440480F2440080F2440C80F2440880F244094100020A2
:4012400005490B68F0229343603A13430B60034B1A88034B1A6070470003024094100020880F2440064A1368F0218B431360054B1A68E423DB001340034A13807047C04636
:4012800000030240880F24409410002038B5051C002402E0FFF75CFF0134285D0028F9D138BDC04608B500F00BFA08BD08B50023044A1370044A1370044A1370FFF7F2FF6D
:4012C00008BDC0468F220020882200208E22002010B590B0041C0BA81F49142203F087FC1E4B1B78002B04D1FFF7E0FF01221B4B1A70002C2CD01A4B1C6008A805AA4260DE
:4013000006AB0893002101811B311980598017391971002313701231694403F08BFD002817D1052300930023019302930D480E49AE2212010BAB03F0D9FC002809D10122CC
:401340000A4B1A700A48112113320FF099FE00E0012010B010BDC04698620100961000207C220020D5140000C800002084220020AC62010008B5022832D81D4B1B78042B5B
:4013800030D11C4B1B785B072FD400280BD11A4B1A1C40320A2111822022596C0A805B6C10325A800EE001280CD1134B1A1C403296211182C822D200596C0A805B6C8022D2
:4013C000D2015A800D4B18700B4840300DF082FF00280CD1074A117804230B43137006E0012004E00420FF3001E00420FF3008BD842200208F220020D80B00208E220020A7
:401400007047C04603784078000218437047C04638B583890B2B20D1041C04300021221C35330FF07BFE051E11D16068FFF7EAFF830706D50A4B1B6882204000211C984708
:4014400005E0074B1B680620FF30211C9847054A137801218B43137000E00025281C38BD7C2200208F220020024B00225A701A707047C0468C22002010B582B0041CFFF7CC
:40148000C7FF0A4B1B78DB070ED4002809D001A912238B70A3890B80C87020680FF03CF802E020680FF0CCF802B010BD8F2200208379002B07D000200BE0C25C002A07D18F
:4014C0000133DBB200E00023052BF6D9002000E001207047F0B583B0051C0C1C6C4A117801230B4313704C2800D9BFE08300694AD3589F4601AE0727377000237370301CF4
:4015000005F080FB377001237370301C05F07AFB614B1E68301CFFF7CBFF00280CD0301C03F0B6FB5C4E30680021FFF769FF30680121FFF765FF0BE0584E301C03F0A8FB5D
:40154000301C0021FFF75CFF301C0121FFF758FF03200DF06FFD01A83F230370002343700DF086FD04224E4B1A707FE022784D4B1A707BE02378002B78D16378002B06D1E7
:40158000494B0022DA809A80484A1A606360404A137801218B43137068E03D4B1B789B0664D4434B1B78102B02D10522404BDA70404B18783E490DF04DFE354A117801232D
:4015C0000B43137052E00222354B1A704EE00422334B1A704AE0324B1B78022B46D02C4A1278D20742D52A4A1278520708D503222B4B1A70264A137804218B43137035E012
:40160000234A1278120708D50422254B1A70204A137808218B43137028E0032B26D104221F4B1A70244B1B78002B1FD10120FFF7A1FE00281AD10322194B1A7016E01D4893
:40164000211C022203F0D3FA0022164B1A700DE0FFF70AFF0AE06188162900D9172120880EF064FF02E0201CFFF706FF084B1A7811231A4209D0064A137801218B4313706F
:401680000E4B1B68281C211C984703B0F0BDC0468F220020386401002C0C0020300C0020842200208822002098100020A80B0020E00C00208C2200208E2200207C220020D3
:4016C0007047C04604490A68FB231A408000F73B184010430860704700000440F0B546465746C0B48FB01F1C02900391161C00F0A3F9041C0D1CC84B0094019598461B789F
:401700005BB2013305D0301C391C00F0DFFF002806D1009801990FB00CBC90469A46F0BD0298039900F0D2FF8246002831D1301C391C0022002301F0C9FB0028E9D0012380
:401740000493B64B04AD6B60534600222B62029B039CAB60EC60B24B2E616F61AA61EB6143461B785BB25A1C0ED0022B0CD0281C00F0DAFF002800D180E02B6A002B03D048
:4017800003F0FAF92B6A0360AB69EC6900930194BFE7029803990022002301F097FB002822D0301C391C0022002301F08FFB041E2CD001230493994B04AD6B6000232B62B2
:4017C000029B039CAB60EC6000230024AB61EC6143461B782E616F615BB2002BC7D000228F4BAA61EB61CFE7201C291C00F064FF8246002847D0201C291C0022002301F0D1
:4018000065FB002866D10094019582E7301C391C00F052FF002800D17BE7301C391C0022002301F059FB002800D172E7012304937A4B04AD6B602C62029B039CAB60EC607F
:4018400043461B782E616F61002B75D100230024AB61EC61281C00F067FF002872D02B6A002B91D08CE700200021021C0B1C01F0A1FEA861E961022C00D078E703F07CF916
:401880002123036079E70298039900F015FF0028B1D0301C391C00F00FFF0028ABD0291C201C00F013FF04AD002850D1012304935A4B28626B60029B039CAB60EC604346AE
:4018C0001C782E616F61002CCDD100230024AB61EC614CE70298039900F0EEFE00940195002800D115E7301C391C00F0E5FE00940195002800D10CE704230493474B04AD9C
:401900006B6000232B62029B039CAB60EC6000230024AB61EC6143461B782E616F615BB2022B04D0281C00F0FFFE002897D103F023F92223036092E700203A49A861E96189
:40194000022B87D103F018F92123036087E703230493324B2E616F616B6053462B62029B039CAB60EC6043461B785BB2002B1CD102980399E0222C4B1206AA61EB6100222B
:40198000002301F0A9FA002830D143461B785BB2022B05D0281C00F0C7FE002800D0ECE603F0EAF822230360E7E60022029803991E4BAA61EB610022002301F08DFA002812
:4019C000E3D000221A4B301C391C02F031FA061C0F1C00F0B1FE321C3B1C01F077FA0028D3D100220F4BAA61EB61CEE70022104B301C391C02F01CFA061C0F1C00F09CFEAB
:401A0000321C3B1C01F062FA0028BED1E022094B1206AA61EB61B8E7D20F00206C6501000000F03F0000F0FFFFFFEF470000F07F0000E03FFFFFEFC7F0B556464D464446D4
:401A40005F46F0B41C1C131C67008DB07F0800930194061C0D1C80468946A2463B4331D0614B6C0064089C4228DC25D09F4225DC5D4B9F4200D176E000239B464B46002B6F
:401A800000DA74E0002A2CD1574B9F4200D18AE0564B9F425FD08023DB059A4501D100F0D1FB534B9A451CD14B46002B19DB301C291C00F007FD07E000280CD04D4BE01858
:401AC00030430AD1002049490DB03CBC90469946A246AB46F0BDA742CADD474800F026FEF2E7301C291C00F0E3FD0B1C4146021C00291ED0E90F013988465946404601433D
:401B000066D03E498F4200DC88E03D498F4201DC00F0E0FB3B4B9C4200DC82E35346002B00DC82E338483949021C0B1C02F080F9CAE7002C04D02D48A90089088142D9D1AB
:401B40005146002900DABBE34946002900DA6FE3101C191CB8E75346002B01DA00F020FC301C291CB0E7002A00D185E7A6E7284B9F422ADC234B9F4200DC83E725493815D8
:401B8000884201DC00F027FC234B00991B1AD940081C9840904200D074E70123194001335B1A9B466EE7134BE018064300D189E7144B9C4200DC75E35346002B00DA34E3BB
:401BC000009B019C181C211C7EE702239B4659E7301C291C321C2B1C02F0C4FB021C0B1C01F0E8FC70E7C0460000F07F0000F03F0000E03F000010C0045F01000000E04131
:401C00000000F043FFFFEF3F9C7500883CE4377EFFFF3F431304000033040000E94900208C4209DC101C191C0022E74B02F000F9021C35200C1C4042E44D2115AC46614449
:401C40008A462403E24DE349240B824425438C4200DC3CE3E0498C4201DC00F021FC01218C46DE49E2448C46002400216544CB009946161C2F1CDA4B301C4B441A685B689E
:401C8000291C069607970892099302F06BFB089A099B061C0F1C0698079901F063F9021C0B1C0020CA4901F085FC021C0B1C301C391C0A920B9302F0BBF80A1C011C131CD8
:401CC0000491059200220292039380236D109B051D43802300201B03EB1819190D1C041C02980399221C2B1C02F0A2F8021C0B1C301C391C02F036FB089A099B061C0F1C0A
:401D0000201C291C02F02EFB021C0B1C0698079902F028FB021C0B1C0298039902F088F8021C0B1C301C391C02F01CFB0A9A0B9B02F07EF8049A059B06900791101C191C14
:401D400002F076F8041C0D1C221C2B1C02F070F8A44A061C0F1C201C291CA34B02F068F8A24AA34B01F0FEF8221C2B1C02F060F8A04AA14B01F0F6F8221C2B1C02F058F8D3
:401D80009E4A9F4B01F0EEF8221C2B1C02F050F89C4A9D4B01F0E6F8221C2B1C02F048F89A4A9B4B01F0DEF8021C0B1C301C391C02F03EF8049A059B041C0D1C029803990B
:401DC00001F0D0F8069A079B02F032F8221C2B1C01F0C8F8029B039C061C0F1C1A1C181C211C231C02F024F80A1C011C894B08910992111C002201F0B5F8321C3B1C01F04B
:401E0000B1F800240D1C02980399221C2B1C02F00FF8221C2B1C029003910698079902F007F80022069007917A4B201C291C02F099FA089A099B02F095FA021C0B1C301CAB
:401E4000391C02F08FFA049A059B01F0F1FF021C0B1C0698079901F085F8061C0F1C02980399321C3B1C01F07DF80024E022201C1206694B0D1C01F0DBFF684A06900791F2
:401E8000674B201C291C01F0D3FF029A039B04900591201C291C02F065FA021C0B1C301C391C02F05FFA5F4A5B4B01F0C1FF021C0B1C0498059901F055F85B4B4B441A6851
:401EC0005B6801F04FF8061C50460F1C02F0FAFD041C0D1C06980799544B4B441A685B6804920593321C3B1C01F03CF8049A059B01F038F8221C2B1C01F034F80020221CCA
:401F00002B1C0290039102F02DFA049A059B02F029FA069A079B02F025FA021C0B1C301C391C02F01FFA049005915B464246013B134300D0B1E100233D4C06930794009BC2
:401F4000019C0026181C211C231C321C02F00AFA029A039B01F06CFF049A059B0D1C271C041C0098019901F063FF021C0B1C201C291C00F0F7FF029A039B00900191301C71
:401F8000391C01F055FF041C0D1C009801992B1C221C00F0E7FF274B82468946994200DC58E1254B4B44034300D001E200980199224A234B00F0D6FF221C061C0F1C2B1C1D
:401FC00040E0C046FFFF0F000000404301FCFFFF0000F03F8E98030079B60B000000F0FF90650100EF4E454A287ECA3F65DBC9934A86CD3F01411DA96074D13F4D268F5187
:402000005555D53FFFAB6FDBB66DDB3F033333333333E33F0000084009C7EE3FF5015B14E02F3EBEFD033ADC80650100706501000000F0BFFFFF8F40000070BFFE822B654B
:402040004715973C5046494602F08CF9021C0B1C301C391C00F054FF4E46002800D0A7E1E74B3615F11880235B0398460B41191CE448494484464F007F0DBC446646E2483E
:40208000002230410E1C864340460903090B08434946331CCE0FDD49C91B0841011C704241408946201C291C02F05CF9041C0D1C009801992B1CB144221C00F053FF4B46EC
:4020C0001B05984600200022D14B061C0F1C01F0AFFE221C029003912B1C301C391C02F041F9021C0B1C0098019902F03BF9C94AC94B01F09DFEC94A041C0D1C301C391CD4
:40210000C74B01F095FE021C0B1C201C291C00F029FF041C0D1C02980399221C2B1C00F021FF029A039B061C0F1C02F01BF9021C0B1C201C291C02F015F9321C0090019154
:402140003B1C301C391C01F073FE041C0D1CB54AB54B01F06DFEB54AB54B02F003F9221C2B1C01F065FEB34AB34B00F0FBFE221C2B1C01F05DFEB14AB14B02F0F3F8221CD4
:402180002B1C01F055FEAF4AAF4B00F0EBFE221C2B1C01F04DFE021C0B1C301C391C02F0E1F8041C0D1C221C2B1C301C391C01F03FFE8023029003910022201C291CDB056D
:4021C00002F0D0F8021C0B1C0298039901F0F2F9009A019B041C0D1C301C391C01F028FE009A019B00F0BEFE021C0B1C201C291C02F0B8F8321C3B1C02F0B4F80B1C021CC5
:402200009249002002F0AEF843465C182315002B00DC4FE1021C231C0698079901F008FE52E45346002B00DA7CE4002000214BE487498C46594664440C4300D0C4E0101C91
:40224000191CC9E4301C291C321C2B1C01F0F0FDFFF73AFC7F4B4E0076089E4200DC17E17D4B4B4403430CD1221C2B1C02F07AF8021C0B1C0098019900F038FE002800D109
:40228000EEE606980799754A754B01F0D1FD734A734B01F0CDFDFFF717FC00236B4C069307944CE65346002BBFDA009B019C80221206181C9446231C6344191CFFF704FCE1
:4022C0000020624901F076F9021C0B1C3CE400240021CCE463498C42A3DD5C498C4201DDFFF71CFC101C191C0022584B02F03AF8C0225D4BD205041C0D1C01F099FD5B4AE0
:40230000061C0F1C201C291C594B01F091FD221C029003912B1C201C291C01F089FD002204900591534B201C291C01F081FD021C0B1C5148514902F015F8221C2B1C01F042
:4023400077FD021C0B1C00204D4902F00BF8021C0B1C0498059901F06BFD4A4A424B01F067FD021C0B1C0298039901F0FBFF041C0D1C221C2B1C301C391C00F0F3FD0022D4
:40238000101C3B1C321C0290039101F0EBFF021C0B1C201C291C01F0E5FF04900591C4E5321C2B1C0020294901F004F9FFF78CFB06980799344A354B01F03AFD324A334BED
:4023C00001F036FDFFF780FB5946101C01296CD0191CFFF779FB002A01D0FFF782FB3A1C091A0A41131C8B40BB4201D0FFF750FB012313400222D31A9B46FFF749FBC04694
:4024000002FCFFFF01FCFFFFFFFF0F0013040000432EE63FEF39FAFE422EE63F396CA80C615C20BED0A4BE726937663EF16BD2C541BDBB3E2CDE25AF6A56113F93BDBE165E
:402440006CC1663F3E5555555555C53F0000F03F000010C0FFCB904000346F3F59F3F8C21F6EA501FEFFEF3F4715F73F44DF5DF80BAE543E0000D03F555555555555D53F4A
:402480000000E03FFE822B659C7500883CE4377E0B4B9E4200DDE3E500239846994611E680240121E402FFF7E2FB802109065918FFF70AFB4A4600F0E1F9021C0B1CABE602
:4024C0000000E03FF0B556464D4644465F46754BF0B40A1C0E1C191C83B0051C041C3140994200D1B7E0002E00DC93E0311500D1A0E06D4B1203CE188023120B5B031A4367
:40250000F30700D577E0731052009846E30FD318802216210027002564009203A818984202DC85181B1ABF18E00F5B0001391B18640052080029F1D1002201929446802215
:4025400012062020924609E0AB4247D0E10F5B0001385B186400520800281ED0614689189D42F1DA8E18B446CE0FF607A94656452ED05B1B8C42AD416D425B1B641A019910
:402580005B008B469344594601380191E10F4D465B18640052080028E0D1234330D1019B5B0842497A108C466244F90702D5802109060B4341460E05B1181D1C0E1C281C4F
:4025C000311C03B03CBC90469946A246AB46F0BD6646002ECDDB6E1CB146CAE7A14208D88E18B446CE0FF607564541D099460023C4E71D1CAAE7E30F5200D218640082E799
:40260000019B01333AD0019A01239446134063445B08C6E773005B080343D0D00021002E33D1E20A15396405002AFAD080235B031A4226D180200023400352000133024253
:40264000FBD001252020ED1AC01A4919251CC5409C402A434DE72A1C331C281C311C01F0E7FB2A1C331C00F07DFC051C0E1CA6E76646002EAFDA0023A9467FE7013700231E
:402680008FE7202001250023DFE72A1C331C281C311C01F067FE021C0B1C00F08BFF051C0E1C8CE70000F07F01FCFFFF0000E03F49004B08191C7047034B48009C4640088B
:4026C0006044C00F7047C046000010800A1C031C024330B50220002A00D130BD80221206914216D00C4A04208C180C4A9442F4D90B4C0C199442F0D90A4A490049080320EB
:402700009142EAD9064A00209142E6D158425841E3E7002BE1D0EFE70000F0FFFFFFDF7F0000F07FFFFF0F0000207047002001497047C0460000F87FF0B5474680B44B006D
:402740004A4A5B0D9D1882B0071C0C1CCE0F132D39DC002D59DB464F021C2F413B1C0B4003439C46B84667460B1C002F25D043465B081A1C0A4010430027002808D0132D8F
:4027800000D16FE099438023DB022B4119430C1C3849F6008E19231C346875683A1C201C291C00F0DFFB0090019100980199221C2B1C01F0D7FD021C0B1C101C191C02B040
:4027C00004BC9046F0BD332D0BDD0B1C8021021CC9008D42F1D1211C00F0C4FB021C0B1CEBE7254A9D1801235B42EB409C460B1C6146021C0142E0D04B080342C8D0802763
:40280000FF052F4198430743C2E74C0064080443021C0B1C002CD0D00903090B01434A4211438022090B12035B0C11405B04021C194310480B1CF10041180C684D68201C78
:40284000291C00F08FFB0090019100980199221C2B1C01F087FD4B005B08F6071E43021C331CAAE780273F068CE7C04601FCFFFFFFFF0F00A0650100EDFBFFFFF8B5314FBB
:40288000161C3B1C0B40041C0D1C0A1C1B1520D14B005B0803431BD000222B4B01F0C8FA2A4B041C0D1C0A1C9E4222DB0F403F153B1C2749363B9B198B4211DD221C2B1CFA
:4028C0002448254900F056F8224A234B01F0B0FAF8BD22498B4222D01D499B198B42EDDC002B0BDD1E491B050A401343201C191CEEE71C4A1C4B01F09BFAE9E7191C35317E
:4029000013DA1A4B9E42D9DC221C2B1C1548164900F030F8134A144B01F08AFAD8E7291C221C2B1C00F01EFBD2E70D4936330A401B051343201C191C00220D4B01F078FA0E
:40294000C6E7C0460000F07F00005043B03CFFFFFE0700009C7500883CE4377EFF070000FFFF0F8059F3F8C21F6EA50150C300000000903C30B54A00DB0F5208DB071343EF
:40298000191C30BD0160704701607047324B1A781202324B1B781A43314B1B781B02314909780B4330498B4201D1072A06D0D42109018B4206D1042A04D102E02B4B04227D
:4029C00000E02A4B2A490B602A4B1A602A4B1B781B022A4A1278134380229201934202D0002B02D002E0264B00E0254B254A1360254B1B781B02254A12781343244A93422C
:402A000005D0244A934204D0052B05D103E0224B02E0214B00E0204B204A1360204B1B681B09204A1268AA2A15D1012B13D9164B1B780E2B0FD11C4B1B781B021B4A127803
:402A400013431B4A13601B4B1B781B021A4A127813431A4A13607047D9F0FF0FD8F0FF0FDFF0FF0FDEF0FF0F580B0000580D00006C002E4074002E40DBF0FF0FDAF0FF0FA5
:402A80000220000078002E40DDF0FF0FDCF0FF0F0F0F000005050000050F000080002E40EC0F00F0E00F00F06DF2FF0F6CF2FF0F84002E406FF2FF0F6EF2FF0F94002E40BB
:402AC00008B5FEF7D5F808BD08B500F04BF808BD08B500F04FF808BD08B500F04BF8034800F02AF8032000F02DF808BDA12B000008B5024800F046F808BDC046A12B000042
:402B00000220FF307047C0462B2070472B2070472B2070472B2070472B2070472B2070472B2070472B2070472B2070472B2070472B2070477047C046014B18677047C0462C
:402B40000000002010B5041CFEF733F8044A1368C0218B43A4011C431460FEF72EF810BD0CE400E080225201014B1A607047C04600E100E080225201014B1A607047C046D7
:402B800080E100E010B5041CFFF7F4FF201CFFF7D3FF0320FFF7D6FFFFF7E4FF10BDC04608B513F01BF908BD002243088B4274D303098B425FD3030A8B4244D3030B8B4277
:402BC00028D3030C8B420DD3FF22090212BA030C8B4202D31212090265D0030B8B4219D300E0090AC30B8B4201D3CB03C01A5241830B8B4201D38B03C01A5241430B8B4268
:402C000001D34B03C01A5241030B8B4201D30B03C01A5241C30A8B4201D3CB02C01A5241830A8B4201D38B02C01A5241430A8B4201D34B02C01A5241030A8B4201D30B02A8
:402C4000C01A5241CDD2C3098B4201D3CB01C01A524183098B4201D38B01C01A524143098B4201D34B01C01A524103098B4201D30B01C01A5241C3088B4201D3CB00C01A9F
:402C8000524183088B4201D38B00C01A524143088B4201D34B00C01A5241411A00D20146524110467047FFE701B5002000F0FCF802BDC0460029F7D003B5FFF775FF0EBC64
:402CC0004243891A1847C04603460B437FD4002243088B4274D303098B425FD3030A8B4244D3030B8B4228D3030C8B420DD3FF22090212BA030C8B4202D31212090265D041
:402D0000030B8B4219D300E0090AC30B8B4201D3CB03C01A5241830B8B4201D38B03C01A5241430B8B4201D34B03C01A5241030B8B4201D30B03C01A5241C30A8B4201D3C3
:402D4000CB02C01A5241830A8B4201D38B02C01A5241430A8B4201D34B02C01A5241030A8B4201D30B02C01A5241CDD2C3098B4201D3CB01C01A524183098B4201D38B0123
:402D8000C01A524143098B4201D34B01C01A524103098B4201D30B01C01A5241C3088B4201D3CB00C01A524183088B4201D38B00C01A524143088B4201D34B00C01A52416E
:402DC000411A00D201465241104670475DE0CA0F00D04942031000D34042534000229C4603098B422DD3030A8B4212D3FC22890112BA030A8B420CD3890192118B4208D3B5
:402E0000890192118B4204D389013AD0921100E08909C3098B4201D3CB01C01A524183098B4201D38B01C01A524143098B4201D34B01C01A524103098B4201D30B01C01A13
:402E40005241C3088B4201D3CB00C01A524183088B4201D38B00C01A5241D9D243088B4201D34B00C01A5241411A00D20146634652415B10104601D34042002B00D5494256
:402E8000704763465B1000D3404201B5002000F00BF802BD0029F8D003B5FFF715FF0EBC4243891A1847C0467047C0468446101C62468C46191C634600E0C0461FB500F0AB
:402EC00051FF002801D40021C8421FBD10B500F095FE4042013010BD10B500F043FF002801DB002010BD012010BDC04610B500F039FF002801DD002010BD012010BDC04606
:402F000010B500F0BFFE002801DC002010BD012010BDC04610B500F0B5FE002801DA002010BD012010BDC04638B500220C4B041C0D1CFFF7EFFF002804D1201C291C01F0EB
:402F40008BFD38BD064B0022201C291C01F00AFA01F082FD80231B069C466044F1E7C0460000E041F0B5454657464E4694464C000A03C90FE0B488460E1C1903470FC50003
:402F8000480A6146490F01436046520A1743C0005A00640D520DDB0F8446984500D1A7E0A01A002800DC01E1002A3DD163460B4300D0D4E06B0700D188E00F232B40042B83
:402FC00000D183E02A1DAA42AD4180236D427F191B043B404646151C002B00D17CE0CC4B01349C4200D1FDE03A1CCA4BED081A405007640552020543120B640D0021120331
:403000000B0D1B056405120B1A436308C24CF60714401C43640064083443281C211C1CBC90469946A246F0BDB94B9C42C2D080231B041943382800DDECE01F2800DD21E1A1
:4030400020220E1C6346121A9640C340334366469640321C561EB24113430A1CC240EB1A9D42B6411D1CBA1A7642971B3B0200D497E07A02560A002E00D1B6E0301C01F083
:403080005DFD031C083B1F2B00DDB7E09E40371C28262A1C361AF240161C9D403E439C4200DDB2E01C1B621C1F2A00DDD8E01F23291C1C1B331CA540A340D1406C1EA54189
:4030C000D64019430D43371C002473E780231B043B40464600D082E78D4BED0878070543FA089C4232D012036405120B640D85E7A31A002B00DC94E0002A3CD0844A94423B
:4031000000D157E7802212041143382B00DC05E163461943481E81410022C8B24019A8429B41051CD2195B42D7183B0239D5784B01349C4200D14CE10120764A6B083A40E2
:4031400028401843D5070543570833E72B1C134348D080231B031A431203120B4EE70138002878D16346EE1AB5429B417A1A5B42D71A351C7AE7021C0A4300D11AE7013B3A
:40318000002B00D0F2E04019A8429B41CA195B42D718051CC9E7131C334300D118E1171C351C46466B0700D007E795E700287AD1621C5205520D012A00DCFBE06246AA1AC3
:4031C0009542B6419146781A7242861A320200D493E06246551BAC458041CF1B40423E1A984648E70022002508E7281C01F0A6FC2030031C083B1F2B00DC47E728388540F6
:403200002E1C00259C4200DC4CE7424AE41A1640371CCFE6634619434B1E99410022CBB21DE7002B00D0F2E0601C43055B0D012B00DCA4E0364B984200D121E163465C198E
:40324000AC429B41CF195B42FA186408D50725435708041CAEE62E4B9C4200D0EAE6A9E6211C331C1F39CB40191C202A00D182E03F231C1BA64035436E1EB54100270D4313
:4032800000248EE7031C0E1C203BDE40202874D040231B1A99400B1C62461343591E8B4100223343DBE6002C50D0194CA24200D1A8E08024240440422743382800DDD9E059
:4032C0001F2800DD39E120243E1C241AA640B0462E1CA146C640444626434C46A5406C1EA541C74035436046451BCF1BAC45894149427F1A141C9846B8E64B464D46334333
:4033000000D0B8E60026002700240025E4E6C046FF070000FFFF7FFFFFFF0F801F2B5BDC2022081CD21A9040814660469246D8404A4610438146524660469040021C501E66
:403340008241484610430A1CDA40E7E63C1C2C4358D0C043002851D16046451BAC458041CF1B40423F1A141C98467FE68F4A944200D0CAE61EE600267DE700238CE73B1CC6
:403380002B43002C00D0BDE0002B00D1F5E063460B4300D10EE663465B19AB428041CA19404217183A0200D4FCE0814A1D1C17400134FFE53A1C2A43002C51D1002A00D0AF
:4033C00085E062460A4303D00F1C65469846F1E50026002700257FE6181C0A1C2038C240202B00D1A7E04020C01A8140081C63461843411E8841104300228FE66B4CA24218
:4034000000D05AE70F1C6546141C9846D2E5002C3AD1381C284371D0DB43002B18D0634882426BD0382B00DD9DE01F2B00DDA7E020203C1CC01A8440A1462C1C8246DC401A
:403440004846044350468540681E8541DF402543654465459B417F185B42FF18141C64E6002A19D162460A4377D00F1C654698464E4C9FE53D436F1EBD410027EDB232E749
:40348000041C0027002527E64848824236D0802000045B420743C5E762460A4349D08024ED087807FA0824032843224209D0CE08264206D162464F07381CD2081043984699
:4034C000321CD200470F1743C500384C72E562460A4300D16EE56246AE1AB5429241781A5242821A100200D455E66246551BAC458041CA1B4042171A98465BE50F1C6546D0
:40350000141C57E5002B34D063460B4311D08024ED087807FA08240328432242D1D0CB082342CED162464F07381CD20810431A1CC7E71E4C3EE5002059E7041C3E1C203C6A
:40354000E640341C20282BD04026301A87403D436F1EBD4100272543C5E680270026FF03124C0025B8E53D436F1EBD410027EDB26EE70F1C65460D4C1CE50F1C654619E5BD
:403580001C1C381C203CE040041C202B0CD04020C31A9F403D436F1EBD410027254357E70027D4E71D1CFCE50027F3E7FF070000FFFF7FFFF0B55F4656464D464446F0B4A2
:4035C0000F0387B098464D003B0BCC0F061C924681469B466D0D01946BD0664B9D4235D080275B467F031F43F3009946624BFF00400F9C4607430023BB460026654400930A
:40360000424617035000D20F53463F0B400D904600D172E0574A904267D080235B031F435346554A5B0FFF001F43944653460021DB0060444246624092462D1A0E430F2E94
:4036400000D9A1E04D48B600805987465B461E4300D076E000239B469946023308260093CEE799464346BB4601930091009B022B6BD1019B9A460021534601220027894668
:403680001A403C4B00213F030C0D24053F0B27433B4C1B0527401F437F00D2077F0817434846391C07B03CBC90469946A246AB46F0BD03433ED05B46002B00D19CE158464E
:4036C00001F03CFA2823311C1B1A021C5F46D940083A97400B1C96403B439B46B1460023284D00262D1A00938AE7524603213A43A0D10027002302219CE752463A4315D0F1
:40370000002F00D185E1381C01F018FA021C28215046891A131CC8405146083B99409F400B1C074317480021801A83E70027002301217FE700239B469946013304260093C8
:403740005EE703230C2600935AE7032B00D13CE2012B00D0BFE11A1C019B1A4000210023002789468EE700238027994600223F03004B87E7FF07000001FCFFFFB065010067
:40378000FFFF0F800DFCFFFFBB4500D951E100D14CE14A46039200225C469046013D180E3F0238431B020193030C994603041B0C4946061C201C1F1C0093FFF7F5F9021C03
:4037C0007A4302904946201C171CFFF773FA039B09041B0C19438F420CD9029B8919013B8E4200D952E18F4200D84FE1029B8919023B0293CC1B201C4946FFF7D5F9009FDF
:40380000834647434946201CFFF754FA039A0B041404240C23439F420DD95A469B19013A9E4200D930E19F4200D82DE10222524294469B19E344029ADB1B17045A463A43AE
:403840009346019C170C220C101C04925A4611042204120C141C090C7C4305924A43414347436118100C09188C4203D980204002844667440C0C12040804120C3C19811893
:40388000A34200D2E5E000D1DFE01F1B43465C1AA04592415242BF1AB74200D10EE1381C4946FFF781F9009B029043434946381C9846FFF7FFF9230C0F041F43B8450CD9AA
:4038C000029BBF19013BBE4200D9FBE0B84500D8F8E0029BBF19023B02934346FF1A4946381CFFF761F9009B039043434946381C9846FFF7DFF924040904240C21438845C1
:403900000CD9039B8919013B8E4200D9DCE0884500D8D9E0039B8919023B03934346C91A029B039A1B04059C1A43100C13049146221C049F1B0C5A4344437B437843E318E3
:40394000170CDB199C4203D980246402A44660441C0C12041B04120C00199B18814200D296E000D1FCE04A4601231A4391469B4BEB18002B00DC99E04A4652070AD00F229A
:4039800049460A40042A05D00431494592418946524293445A46D20106D55A46904B1A4080239346DB00EB188E4A934200DD62E64A465946D208490711435A468946570297
:4039C000514601225B053F0B5B0D0A405AE680205A460003024208D0074206D107433F0399463F0B4246804B4CE65F4607433F033F0B221C7C4B45E601F0A0F8031C203015
:403A0000272800DC5EE6083B9E400023B346994665E6504601F092F8021C2032272A00DC75E657460838874000237BE6994500D2AFE65A46594654084A46C80752080243A1
:403A400003924A46D2079046A9E60027884500D31CE7019F5A46BC46E044B845BF417F42BF19FF18013ABE4206D2BC425FD800D19FE03F1B934609E7B742FAD1019B434563
:403A8000F3D9371B934601E79346D4E60293B1E64A468919013A8E4218D99146814200D061E7019A9A4200D05DE760E74F4F7F1B382F13DD012253461A404FE601235B421B
:403AC000994654E7029308E7039327E788423CD874D0914647E7019B9A4648E71F2F44DC434B4A469C465B466544FA40AB4013434A46AA40151C6A1E95415A46FA402B432E
:403B0000171C5A0709D00F221A40042A05D01A1D9A429B415B42FF18131C3A023ED55346012200211A40002701238946AAE502235B429C46019AE3449446E04490459B4174
:403B40005B429B19DF193F1BA0E6019F4A467C00BC42BF417F42BF19023AC91901949CE7002B95D1002201929BE75A46214B5B1BDA40202F27D0204B9C465B466544AB4077
:403B800049460B43591E8B411343072200271A4007D00F2200271A40042AB8D17A077F023F0BDB0813439946012253461A40002368E54145BBD89346002767E6019C9C42DA
:403BC000C3D391466DE70023DAE780275B463F031F433F033F0B019A034B53E5FF030000FFFFFFFEFE070000FF07000002FCFFFF1E040000E2FBFFFF3E040000F0B55F46FA
:403C00004D4644465646F0B41F035C00DB0F99461B4B0E034D00C90F8446360B6D0D8B4690463F0B640D9D420CD0154B9C4210D00123A54214D0181C3CBC90469946A246CC
:403C4000AB46F0BD311C01230143F4D10C4B9C42EED13A430123002AEDD10123A542EAD1BE42E8D1C445E6D1CB4506D0002DE2D13043031C581E8341DDE70023DBE7C0462F
:403C8000FF070000F0B5574645464E46E0B40F034E00C90F8A4632491D035C0084463F0B760D90462D0B640DDB0F8E420FD08C4239D0002E10D13843414241418946002CFA
:403CC00027D12A4325D1002000290ED108E0391C01432ED1B44226D0002C0BD09A450DD05346594201231943081C1CBC90469946A246F0BD2A43F3D09A45F1D1A642EFDC94
:403D00001ADA504641424841012341421943081CEBE74A46002AE1D058425841012241421143081CE1E7291C114302D1002EC2D0D4E702204042D8E7AF42D1D809D0002093
:403D4000AF42D2D2504641424841012340421843CBE7C445C4D80020C445F3D3C5E7C046FF070000F0B55F464D46444656468046F0B4061C0803000B84462C484C001F03BC
:403D80005D00C90F640D8B4691463F0B6D0DDB0F844212D0854225D0002C14D161460E4370424641002D35D0002E21D058425841012143420B43181C0EE061460220314389
:403DC0000AD1A5420ED0002D12D13A4310D15B46594201231943081C3CBC90469946A246AB46F0BD391C02201143F5D1002CD5D09B45ECD1AC42EADC05DBBC45E7D80FD070
:403E00000020BC45E8D2584641424841414201200843E1E73A43C7D10020002EDCD1D6E7C845D4D80020C845EDD3D5E7FF070000F0B55F4656464D464446F0B4051C061C27
:403E4000080387B099464F00030BCC0F92469B467F0D019467D06C4B9F4236D080205B4640031843C0006B0F1843684B83469C4600239846EE00674400934B4649461D03FB
:403E8000C90F5B0052462D0B5B0D894600D16EE05D498B4264D080205C4940038C4600210543ED00500F0543D20063444846FF187B1C9A46009B604002900B430F2B00D9E8
:403EC000ACE053489B00C3589F465B461D4300D082E00823009300239B46023300269846CBE7029B01934346022B59D1012400250026019B1C40444B00212D030A0D120599
:403F00002D0B1543434A1B0515401D436D00E4076D082543301C291C07B03CBC90469946A246AB46F0BD2B434ED05B46002B00D185E1584600F002FE021C2823291C9B1A5F
:403F4000161C5846D940083EB0400B1CB54003439B462E1C0023304F0093BF1A98468CE7514629432ED10025002202219EE75146294323D0002D00D154E1281C00F0DEFD0D
:403F8000031C28215046C91A1A1CC8405146083A914095400A1C05431F480021C31A85E7032B00D1C2E1012B00D06DE14446019B00251C40E4B2002300269DE700250022E7
:403FC000012173E7032171E70423009300239B4601330026984650E70C230093093B98464BE7802500242D030026074B84E74B46AB46161C0193884675E7029BAB46161C78
:40400000019388466FE7C046FF07000001FCFFFFF0650100FFFF0F800DFCFFFF330C3604360C9C46331C140C1204120C53439846634653439946634663430193331C41464C
:404040006343090C4B445B18994505D9802040028146019949440191190C039141460904090C1B045B1804932B0C9846331C2D04290C4B43604600934346654658435E43D9
:40408000009B4D431B0C9946AE194E448446B54203D980235B029946CC44350C2B1C0398634484460593009B36041B041B0CF3189C446046039058460504060C280C8446C8
:4040C0005043351C81466046654344434846000C8346724314195C44A24203D98022520293465D44220CAD184A461204120C24044046A41862464A4371434643604600965C
:40410000464670438046100C84468844E044414505D9802149028C46009961440091019803998446614499429B415B4299460598434684461204120C1B049B1863449C465D
:40414000AB4683429B4140460A19CC44A2428941E344CC45B6415C46000C8046494276425B426418334398448C428941AB459B4149425B4219430D1C009B4544EE18760242
:40418000E50D2E43B346049B56021E43731E9E415B46D20D324366021643DB010AD50123334076081E435B46DB071E435B465B089B465746634BFB18002B5ADD720709D019
:4041C0000F223240042A05D0321DB242B6417642B344161C5A46D20106D55A465A4B1A4080239346DB00FB18584A934234DD0124029B00251C400026554B7DE680205B4672
:404200000003034208D0054206D105432D032D0B4C46161C4E4B6FE65D4605432D032D0B4B4B69E6504600F089FC031C2033272B00DCA6E65546083885400022ACE6281CD7
:4042400000F07CFC021C2032272A00DC75E6083885400026AB467DE65A46F608520716435A4601245502029A5B052D0B5B0D144042E6384DED1B382D0ADD0124029B00251B
:404280001C400026002337E6019B5746029391E71F2D25DC304B321C9C466744BE405B46BB40371CEA407E1EB74113433B431E1C5B46EB401D1C730709D00F233340042B6E
:4042C00005D0331DB342B6417642AD191E1C2B0220D50124029B00251C40002601230BE65A461E4BDB1BDA40131C202D1CD01C4A94465A466744BA40171C3E43721E964134
:404300001E4307230025334007D00F2300253340042BD6D16B076D022D0B0124F6081E43029B1C400023E7E50027E6E780255B4601242D031D43019B2D0323401C1C2D0BD0
:40434000034BD9E5FF030000FFFFFFFEFE070000FF07000002FCFFFF1E040000E2FBFFFF3E040000F0B54D4644465F465646F0B40E1C111C3203520A470F1743C5001A03CD
:404380005800DB0F9946520A4B0F83B01A43CB000193CF4B7400F60F640DB046400D984200D1E8E00123494659400B1C9E4200D1B1E0261A002E00DC1CE1002842D1131C17
:4043C00001990B4300D0E6E06B0700D18EE00F232B40042B00D189E02A1DAA42AD418023012641466D427F191B043B400E40151C002B00D183E0B64B01349C4200D116E17B
:404400003A1CB44BED081A405007640552020543120B640D002112030B0D1B056405120B1A436308AC4CF60714401C43640064083443281C211C03B03CBC90469946A2467A
:40444000AB46F0BDA24B9C42BED080231B041A43382E00DD03E11F2E00DD3FE12020831B9946131C49468B409C46019B6046F34003430198F2408840011C481E81410B43AC
:40448000EB1A9D4280411D1CBA1A4042171A3B0200D4A8E07A02560A002E00D1CAE0301C00F04CFB031C083B1F2B00DDCBE02822291C121AD1409E400A1C9D4032439C42C2
:4044C00000DDC8E01C1B671C1F2F00DDEDE01F23291C1C1B131CA540A340F9406C1EA541FA4019430D43171C00246DE78023012642461B043B401640002B00D07BE7744B38
:40450000ED0878070543FA089C423BD012036405120B640D7EE7231A9A46002B00DCA5E0002844D06A48844200D14DE78020000402435346382B00DC1CE1019B1A43511EDB
:404540008A41D1B200224919A94280410D1CD219404217183B0246D55D4B01349C4200D169E101205B4A6B083A4028401843D5070543570828E7131C01990B4300D111E7E2
:404580004B4613E72B1C134351D080231B031A431203120B3EE7013E002E00D080E0691A8D429B41BA1A5B42D71A0D1C6FE7101C019B184300D107E701235B429C46E244E6
:4045C0005346002B00D002E1019BD2195919A9429B415B42D7180D1CBCE76346034300D128E1071C65466B0700D0F0E6012643461E4084E7002E00D081E0601C4005400D97
:40460000012800DC07E10199681A84466545B641B81A7642861B300200D4A1E08C464D1BAC458941D21B4942561A984634E700220025EFE6281C00F081FA2030031C083B01
:404640001F2B00DC33E7021C283A95402A1C00259C4200DC36E71F4FE41A1740B4E6019B1A43511E8A41D3B2002209E7002B00D001E1601C43055B0D012B00DCB0E0144B3C
:40468000984200D11EE1019BD2195919A9429B415B42D2184908D5070D435708041C93E60B4B9C4200D0D3E68EE6211C131C1F39CB40191C202F00D18EE03F231C1BA24056
:4046C00015436A1E954100270D4300248BE7C046FF070000FFFF7FFFFFFF0F80331C101C203BD840202E79D040239B1B9A40131C019A1343591E8B4100220343C0E6002CCD
:4047000053D0C74CA04200D1B0E0802471428946240427434946382900DDCDE01F2900DD59E120243E1C611A8E408A46B04649462E1CCE405146B4468D40644646464946B8
:4047400026436C1EA541CF4035430199D71B8C464D1BAC4592415242BF1A041C984696E663466546334300D096E60026002700240025C4E61F2B61DC2020C31A9B46131C5E
:4047800059468B4051469946019BCB409C464B46604603439C465B46019999406346481E814119435346DA40CDE63C1C2C435DD0F1438946002955D10199D21B8C464D1B83
:4047C000AC4589414942571A041C98465FE69448844200D0ADE6F7E5002271E7002387E73B1C2B43002C00D0DAE0002B00D113E1131C01990B4300D1E6E54919A9429B418C
:40480000D2195B42D7183B0200D421E1854B0D1C1F40041CD8E5381C2843002C40D1002800D083E0101C0199084303D0171C0D1C9846C9E500260027002560E65046131C19
:404840002038C340181C5346202B00D1C1E0402351465B1A9A40019911434A1E91410022014370E66E4CA04200D053E7171C019D041C9846A8E5002C28D13C1C2C4300D167
:404880008AE0DB439A46002B00D082E0019BD2199C4665449D42894149425718041C59E600285BD1101C0199084300D1A4E0171C0D1C98465A4C87E53D436F1EBD410027E7
:4048C000EDB242E7041C0027002518E6544CA04262D0534680245B429A46240427435346382B00DD8EE01F2B00DD9DE02024E31A9B463B1C59468B40514699462B1CCB40F0
:404900009C464B46644623439C465B469D4063466C1EA541CF401D43019BBF189C4665449D4292415242BF18041C13E6101C0199084300D148E5681A844685428041BE1A1D
:404940004042301A060200D447E68C464D1BAC458941D21B4942571A984635E5101C0199084334D080247807ED08FF0824032843274208D0D608264205D1C90852070A43F2
:40498000101C371C9846FF00420F1743C500244C1AE5234CA042A2D1171C019D041C13E5002B35D0131C01990B4310D080247807ED08FF08240328432742E4D0D3082342DA
:4049C000E1D1C90852070A43101C1F1CDBE7144CFAE400223FE74C463E1C203CE6404946341C202932D04026761AB7403D436F1EBD4100272543A8E680270026FF03084C0F
:404A000000257CE53D436F1EBD410027EDB283E7171C019D024CD7E4171C019DD4E4C046FF070000FFFF7FFF54463B1C203CE3401C1C5346202B0DD0402351465B1A9F4013
:404A40003D436F1EBD410027254365E70027CDE70D1CC8E50027F3E70B0330B5134C1A0B4B00051C5B0DC90F0020A34210DD104883420EDC80200F4C40030243E41A1F2CB6
:404A80000ADD0D48C31ADA40131C48424340581830BD0A4BC818FBE7281CE040084CA44663449A40131C0343EFE7C046FE0300001D0400003304000013040000FFFFFF7FB3
:404AC000EDFBFFFF38B5041E16D0C50F00D04442201C00F033F8174B1B1A0A2821DC021C211C153291400A1C0B21081AC4405B052403240B5B0D03E000250023002400221A
:404B00000021101C24030A0D1205240B14430A4A1B0514401C436400ED0764082C43211C38BD0B3884405B052403240B5B0D0022E6E7C0461E040000FFFF0F801C21012397
:404B40001B04984201D3000C10391B0A984201D3000A08391B09984201D30009043902A2105C40187047C04604030202010101010000000000000000014B18687047C04620
:404B8000381000200E4B70B500251E1C0D4CE41AA410A54204D0AB00F35898470135F8E711F0C8FD084B00251E1C084CE41AA410A54204D0AB00F35898470135F8E770BDB0
:404BC0004067010040670100406701004867010030B50024944208D0035D651C0C5DA34201D0181B02E02C1CF4E7002030BD002310B5934203D0CC5CC4540133F9E710BD60
:404C0000031C8218934202D019700133FAE770470023C25C0133002AFBD1581E70470000134A1088810703D08107890F401A001D11791030484381B25088820703D08207FB
:404C4000920F801A001D800040180A494030098980B2CA0701D0503080B2890706D504495422091F09785143081880B270470000EE0C0020A010002010B501F0F9FE10BD51
:404C800010B501F00BFF10BD10B500F04FFA10BD10B50749044609780220002907D1204601F04CFF002802D120460AF0B9FA10BD580E002070B504460120002C12D023686D
:404CC000002B0FD0616800290CD0074D06222889208118462968FFF78AFF6968606809780170002070BD0000A0100020FFB585B0002768460E9D07734C481C46007800287F
:404D000002D0082009B0F0BD10990F9801900095029105A807C800F0FBF80028F2D16946264603AB84460873002C19D0002115E08A00B75A082F09D990198078002805D035
:404D4000083FB7521878401C187005E0002915D00027B75290198770491CC9B2A942E7D360460028CED10F9800280AD0109901F033FA0006000E04D00120C3E701208446AC
:404D8000EEE701F08BFE2948002101610C300599016021888180022D03D3A1798171A17AC17100211EE0481C19E082008B00A75AE65ABE46BE4211D26F463E80B4461E1918
:404DC0000296B678BE7001967646E6521719029EBB78B3706646A652019EBE70401CA842E3D3491CA942DED3114800906846037B22460799069800F013F9002882D16846C0
:404E00000A4C007B60700A4801F078FE0028B4D1204607490C3007F02DFA0028ADD107F047FA0028A9D1012121706BE7E80C0020A0100020F8B5054633480E46007800288B
:404E400002D002242046F8BD002E5BD000242F49002D16D02A89D0070DD02868002808D003881B3BE12B04D24088FB2801D81B2801D2012409E0900707D56868002804D135
:404E8000F7E70020088108604860002CDAD11F482F8907811C481B21801D018041800421017119490020891C0870F80705D016480622801D2968FFF79AFE1449B80703D51E
:404EC0006A681148127882700F480D46801D0860001F486001F058FE0B48801D01F046FE28890DF0C9F928890DF030FB03461033FFF796FE1F21C0188901401802493080D5
:404F000088809FE701249DE7E80C0020A0100020FFB58446384F1C460020BB883F78054602460646002F11D100290ED0029999420BD36146002908D0002C06D00A99002914
:404F400006D02E4B0B99994202D2012004B0F0BD002144E0AB001F19BF78002F3BD0E35A002B38D07B43591889B22B0000F04AF8050410161C253100A7782388BC46FF27AA
:404F8000233BEB37BB4222D26346032B1FD322E0A388002B1FD0302B19D31CE02389002B19D0282B13D316E0A289002A13D01346134F233BBB420AD20DE0268A002A0AD073
:404FC00033460F4F233BBB4201D2964203D901200EE0002001E000280AD16D1CEDB2099B9D42B7D31C2463435B1802998B42ACD89642AAD8AAE70000E80C002079020000F1
:40500000BAFF000030B47446641E2578641CAB4200D21D46635D5B00E31830BC18470000FFB583B0002469460C801F4606468C80002806D00598002803D0049830438007C8
:4050400001D0012467E0002FFBD03449049809888842F6D3FDF74CFDFDF73AFD00F010FC002856D100F06CFD002852D12C49084601F0E6F805042D0C4BD12A480499066000
:4050800081800021C18007810C98007AC00704D0684601F01CFD040007D10C98007A800703D501A801F01CFD0446BF1DFEB2002C21D13146059800F05DF804001BD10DF04E
:4050C00053FA0406240E16D16A461088928808368518144AF1B29088D288AEB29319984207D3401B801A80B201F09AFB050007D000E0FF25012400F05BFA002D04D008E0F0
:40510000F8B200F01BF9F6E700F07EFA06490120087000F0C7FB204607B0F0BDEC0C002061520000AC100020FC0C002010B503480078012801D101F015FA10BDFC0C0020D1
:4051400070B5084B0446DA889E8800205518B54206D81D68AA182260DA885118D98070BD032070BDAC1000200148008970470000AC100020F0B587B007460D4600208900B3
:40518000009006916846FFF7DBFF844600285DD1304800990160002117E02E4B88001A680629115406D22C4C0419667882185670628805E0C419203CA67A821856702289AB
:4051C0001B68C018491C4280C9B2A942E5D300242DE0601CC2B2059025E01E4FA30039689600581840887118039604904E88B04217D938466F46FE80B6464F786E46777157
:405200000297049F4F800168039F5E18767879184E700168764659184E800068029F18184770521CD2B2AA42D7D30598C4B2AC42CFD36046002809D168460699FFF780FFBC
:405240008446002802D1054900980860604607B0F0BD0000000D002068670100040D00207047000010B5002809D005494A68002A05D0011F08788000105801F07FFA10BDA8
:40528000000D002010B50446FFF76EFFC0B2801DA0420CD307484068002808D0A100405801F0DEF9002801D00470001D10BD002010BD0000000D0020F8B516460D46044670
:4052C000FFF752FFC0B2801DA04203D20020C0430090F8BDB2B2E9B2684601F0E7F90099481C03D0024AA000526811500098F8BD000D0020F8B50746FFF736FF801DC6B230
:405300000A49002005460C680DE06178002907D06188B94202D32078FFF7B4FF002804D1241D6D1CEDB2B542EFD3F8BD000D002010B5002801D0FFF795FF10BD70B50646F4
:405340000948002504680BE06178002905D062882078121D0023FFF7AFFF241D6D1CEDB2B542F1D370BD0000000D0020FFB581B00A9C16002BD000F0F1F80546042826D0B1
:40538000214F002C0BD02046FFF7B4FF2901C919486000281BD022460499FFF728FC1A4928010E5046187481019805707D20029CC000444300F0C0F8009004280AD000F086
:4053C00055FAA0420ED800F051FA201A06E0FF2005B0F0BD204600F0ADFA0020B08135720020F5E700F042FA074600F0B9FA381B87B23846012100F0EFF8009801010248C6
:4054000008188781E6E70000B8100020F8B5060117483418217A042903D0A089002802D018E00020F8BD00F021FA054600F098FA00F0A2F804280DD001010D480F18B8897B
:4054400041198DB2002100F0C7F80020B881284600F070FA6068064D002801D0FFF768FF042020720020A8516081A081D9E70000B8100020FEB500266A4630460123254927
:40548000050169180D7A042D02D0898900291BD000211154401CC0B20428F0D300246846005D002830D01B482101081841894768056802910021016041600422418102727E
:4054C0008181002E02D015E01354E3E700F054F804280ED001010F480818019086890021304600F079F8019800218181304600F021FA0126002D07D038460299A847002F8E
:4055000002D03846FFF714FF641CE4B2042CC6D3FEBD0000B81000200EB5002005216A460090118150810348694600680DF091FE0EBD0000080D0020074A002001018918E2
:405540000B7A042B02D08989002903D0401CC0B20428F3D370470000B81000200549002002015218127A042A03D0401CC0B20428F6D37047B810002030B50A4B04200A4CBA
:4055800000210A011219157A042D06D09289002A03D09A4201D808461346491CC9B20429EFD330BDFFFF0000B81000207047000030B50020074C05460423020111190B72BD
:4055C000A5504D60401C4D81C0B28D810428F4D330BD0000B810002030B5094C00231A011219157A042D04D09589002906D02D1895815B1CDBB2042BF1D330BD2D1AF7E7DF
:40560000B8100020002070471CB5002469460C70142001902346054A05480DF01FFE04480068401C00D1FF2420461CBD85560000080D00203EB5124A0146FF200023012457
:40564000126800290DD0012914D0042908D104206946009308814B8110460DF0FAFD80B23EBD6846009304814381694610460DF0EBFDF4E768460093048143816946EBE70A
:40568000080D002070B545890468416800890300FFF7B8FC08280509091E22282628002005F0FAFC1EE0022908D0C8B22A4621460BF092FF2046FFF73BFE13E002202A4677
:4056C00021460BF089FF2946204600F00DF809E000200DF0ADFA05E02046FFF7CBFE01E0FDF728FA002070BD014B0022DB6818470C0D002070B5448905680089022803D0CD
:40570000032809D0FF2070BD2246094C0023A46829460120A04708E0FFF7B2FA241DA2B200232946022006F056FC002070BD00000C0D0020704700000248002141600180D1
:40574000418070470C0D002070B50C46002186B016460391012802D0022859D116E003A9012006F098FC01281BD1039D324621462846FFF73CFA0095287801900220694659
:4057800008814E816846FFF7B5FF41E0214D002B686809D0049004A9022006F07CFC01281DD0022006B070BD002812D0298840182146FFF71CFA28880024801980B228801D
:4057C0006988091D884206D12C801348FFF792FF03E00320E6E788421AD96C6018E004986860E278A378110219430B4A698000231060E3565360032313815181A178817074
:40580000E178C1706178417021780170042028800020C7E70C0D0020F81000203EB515460C46022803D004280CD000203EBD0091019002206946088107484A8100680DF094
:4058400008FD07E00BF0C8FE044B0022DB6829462046984701203EBD080D00200C0D0020014AD160906070470C0D0020034801688068081A0A2148430009704704110020C4
:4058800010B5FDF729F9482204490548FFF7AFF903490120C870002010BD0000846701000815002010B5FDF70FF910BD70B5134C2368002B08D0207B1149C20705D0400835
:4058C000400020738868A08070BD88680B4AA18880B29268814203D90A4D691A091802E0814202D2411A5118A160A080A0689842EAD30DF0CBFC00F013F870BD0411002046
:40590000C0102E40FFFF000010B508461946FFF7A7FF10BD704710B5FFF780FF10BD000003480021016041608160C1607047000004110020024610B5FF20002A0CD0FFF70E
:40594000EFFF064C0321207B0843207310010A21FDF7B0F92060002010BD00000411002000B504480A21806848430209FFF7D8FF104600BD041100200248007B8007C00FF5
:40598000704700000411002010B544490868002802DA434B01221A70022290430860414800693E49C00B4031096A08425ED0012000F0D0FA3B483C497C30FCF7E5FF374816
:4059C0000E216C30FCF7E0FF364820218430FCF7DBFF344814219C30FCF7D6FF3148FF21C131A430FCF7D0FF2E48FF212F31B030FCF7CAFF2B482D49BC30FCF7C5FF2948D5
:405A00002B49AC30FCF7C0FF29492648491CB430FCF7BAFF23482749B830FCF7B5FF21482549CC30FCF7B0FF1E4824490830FCF7ABFF1C482249A830FCF7A6FF19482149FE
:405A40008830FCF7A1FF17481F498C30FCF79CFF14481921C9029030FCF796FFFCF796FFFDF74EF8C0B2022802D00FE0FF2010BD16491748FCF788FF15481649001DFCF712
:405A800083FF134800210830FCF77EFF54200449C043891C0870002010BD000000F02E401C0D002000002E4055650000320300002F3F00003102000010520000EC16000069
:405AC000FA12000031D000003AE300009956000080012E40F80F000070B50646581C80B245086D00002408E0304600F0C1F81055000A1119A41C4870A4B2AC42F4D3D807A0
:405B000005D0D0182038D15CC47FD454C17770BD30B50A4C002100195B1E07E0541864782502545C2C430480891C89B29942F5DB994201D1515C018030BD000000102E409B
:405B400010B5FF2000F006FA0F49FF2048700E481021801D41800121417001700A490020C91C4870FFF710FF04000AD100F01AF907210648FCF706FF044807211830FCF7E5
:405B800001FF204610BD00001C0D0020CC112E4070B5002405465B1E0AE0284600F068F8010A161971702D1D1055A41CADB2A4B29C42F2DB9C4203D1284600F059F81055B9
:405BC00070BD000070B500210A4D5B1E0AE0541864782602545C344346193480001D891C80B289B29942F2DB994202D1515C4019018070BD00102E40F0B50599091FCFB22B
:405C000000217E1E0BE0541864782502545C2C43164D45192C80001D891C80B289B2B142F1DBFC0712D01C78515C24020F4A0C4381180C809C785D78001D210280B22943F3
:405C400084182180001D80B2D9780CE059781A7809021143054A84182180001DD9789B78090280B2194380180180F0BD00102E40014940180088704700102E4010B50B4937
:405C80000020487000F08EF8002000F089F9002000F076F907210648FCF774FE044807211830FCF76FFE002010BD00001F0D0020CC112E4010B506480078012803D102215F
:405CC0000448FCF761FE02490020C91E087010BD1F0D002070F02E4010B50B46062812D006DC01280CD0032801D1FFF7C7FF10BD0A28FCD00B28FAD105480078107010BDB4
:405D0000FFF71EFF10BD1146184600F065F910BD220D0020F8B5204DAC6A0127A0071F4E002816DA307806280ED1286A384328621B480069F903084381B219481030FCF7BA
:405D400023FE042000F006F9134802212830FCF719FEE00711D0062000F0FCF80F49FF20C91E48707078002802D1686B38436863094801212830FCF705FEE0050BD53078FD
:405D8000042802D1052000F0E5F80348FF2101312830FCF7F7FDF8BD40F02E401F0D002000002E4010B503212348FCF7EDFD0120FCF786FE20483038406A204C80076178FA
:405DC000800F890001431C480C38FCF7DDFD6078002808D0401E022181401820FDF75AF8C000083800E0B82081B21548FCF7CCFD1348032109021438FCF7C6FD10481149F8
:405E0000B830FCF7C1FD612189010F48FCF7BCFD0D480321001FFCF7B7FD0C490C48FCF7B3FD0B480B496038FCF7AEFD084801218838FCF7A9FD10BD70F02E40220D00209D
:405E4000D8102E4090890000041E2E40FF0F000058122E4020900000044800684007400F022801D0002070470120704700010B4000B5FFF7F1FF002805D009480168C9082A
:405E8000C900016000BD0748016A490849000162054801690122D2039143016100BD000000010B4040F02E4000002E400849087806280BD148780749002803D1486B400868
:405EC00040004863C86A01221043C862704700001F0D002040F02E4001480078704700001F0D002002484078022800D0012070471C0D002000B50300FFF784F8080D050D12
:405F00000B070507090D012000BD032000BD042000BD022000BDFF2000BD0000074A9168D26889B2064B92B2994204D105498A4201D1012100E000210170704780002E40AA
:405F400033D000003FE3000001494870704700001F0D002010B50446FCF7BAFD072C01D9FF2C01D102480470FCF7AEFD10BD00001F0D002001494870704700001C0D0020BD
:405F800010B5064A012805D01921C9021046FCF7FBFC10BD1D21C902F8E7000090002E4010B50A4A141D012808D009491046FCF7EBFC08492046FCF7E7FC10BD044910460C
:405FC000891CFCF7E1FC0349491DF3E788002E4031D000003AE3000070B50C460546FCF78FFDC0B202280E49287804D0FF2810D04C280CD810E0FF2809D10A4AD068000404
:40600000800F032801D0087807E09069000A553803E00878207070BD4F382070087070BD1E0D002000002E40F0B50122002830D000292ED00424420600D0052479234206E5
:406040005B06D21800D0641C034600221EE00C2516466E43104D00277519AF720E4F002ABB51696007D0661EB24209D10B4E86197606760E05E05E06760E8027BE1B00E001
:4060800080269B198919521C2E81D2B2A242DED300221046F0BD00009013002079020000074900200C2242435218927A012A05D0401CC0B20628F5D300207047012070473F
:4060C00090130020F8B50F000446164609D0184D18496868A04202D94018A04201D38E4201D90120F8BD39462046FEF771FD00281BD0324639462046FEF779FDF0B20021DB
:406100000C224A43521913895668F718A74208D90127A41B1B1B9772834206DAC01A1469C0B2491CC9B20629EAD30020F8BD0000901300207902000010B500F05DF807483A
:40614000054AC16806480C46FEF751FD04492046FFF76AFF10BD000079020000280D002014110020002070470020054A002902D0012902D002E0506000E09060002070475A
:40618000280D002070B5084C154608460549A26889182A46FEF72BFDA0684019A06028B270BD000014110020280D00203EB50A226946FFF7E7FF044606480A22006869465B
:4061C000FEF706FD002802D00020C0433EBD20463EBD0000280D0020002802D0044A914201D2FF20704703490A61C8600020704779020000280D00200248002141608160A2
:4062000070470000280D002070B5074C15460548626880182A46FFF755FF60684019606028B270BD14110020280D002010B503490A220968FFF7E8FF10BD0000280D0020E7
:4062400010B50F4A002313600E4A13600E4B18600E4801600E49012008600E490860000290600E490C4808600D4914300860FF381538506000F0BCF800F0CAF9002010BDF9
:40628000540D00203C0D0020680D00206C0D0020580D0020480D0020D81400204C0D0020600D0020014610B50020002910D0094B1A689C685118A14209D2586819608018B3
:4062C0008A0704D08A07920F891A091D196010BD002010BD3C0D0020F8B50024164E671E321F3D463168136806E01422624310328A58521C1BD0641C9C42F6D36A1C14D031
:406300002C461422544322460C3288500C214843FFF7C8FF3168002808510AD031680020103408517068401C70602846F8BD2546E4E73846F8BD00004C0D0020F3B500260A
:40634000F64381B000281BDB1E490968884217D80299002914D01B4F142204463F1D54432546396810354859401C09D0FCF7B0FB38682F1F4159C359994203DBFCF7A4FBCB
:406380003046FEBD214608310091465801590C20704308180C220299FEF729FC0948761C001D0068C159B14200D100260549009A091D865008684159491C4151FCF784FBDE
:4063C0000020FEBD480D0020002803DB07490968884202D90020C043704704491422091D096850431030085870470000480D0020F0B500200D4A451E0346171F50600FE0F1
:4064000014260146714314680E1DA3510C461668083433511668083435511468401C635039688842ECD30020F0BD00004C0D0020F3B50026F64381B0002841DB2349096868
:4064400088423DD8029900293AD0204F142204463F1D54432546396810354859401C2FD0FCF736FB3868415900292BD0211D009146580C21005971430F46C1190C22029820
:40648000FEF7B5FB11480021001D0068761C00590C34C0190160416081600C48001D00680159B14200D100260849009A091D865008684159491E4151FCF706FB0020FEBD7B
:4064C0003046FEBDFCF700FBFAE70000480D0020FEB504460D4600201E49089E0860471E009001900290002C11D0486885420ED2002A0CD0002E0AD0642E08D808460C30BC
:4065000001681C2068430C18207A002801D03846FEBD0120226020721846FFF7DDFE6060401C13D06681A6810A4827610C3067610179A94200D205710021684601810A467E
:406540002846029B00F040F82846FEBD00202072DDE70000540D002038B50124009400F039F838BDFEB50027164EFF433D4600240EE01C20316860430818017A002906D0E5
:406580004068FFF721FF002801D0254603E0641C3079A042EDDA681C12D01C2130684D434419FCF795FA69466068FFF741FF0546FCF78AFA002DD9D1216868468847D5E752
:4065C000FEBD0000600D002038B50024009400F001F838BD1FB500220C49541E0A60002811DB496888420ED808491C220C31096850430818406801A9FFF7A0FE401C02D030
:40660000002004B010BD2046FBE70000540D0020F0B50021114A4D1E174611710C3F0B46BD6016E008461C2460431668041D355114680646235014680836A3551468361DC4
:40664000A353044616680A34335318301468491C255078688142E5D30020F0BD600D002038B500210091002811DB0F49097888420DDA0D4D04010C3529680859002807D077
:40668000201D0818694600F06FF9002801D0002038BDFCF71DFA28680F34015D491E0155FCF712FA009838BD700D0020F7B582B0002502986E1E06602E48D21C02401746B5
:4066C0002D4A2C4610460C380178106805E02301C358002B0FD0641CE4B28C42F7D3711C28D03401211D40180191039900F02AF900281FD101E02646F1E71F480168204646
:406700000C300F521C480399026820460E30115419480399026820460F3011540398784300F0A0F8144900280968085102D00024009011E001251AE00F480168019808189B
:40674000009900F02CF9002801D0012502E00098C0190090641CE4B203988442ECD3002D05D10298066004480179491C0171284605B0F0BDFCFF00007C0D0020F8B50D461F
:4067800000216A468C461180002839DB23490978884235DA214B04010C3319680A59002A2ED020460C300B5A801C0E5C184670438018954224D3854222D2002006E0074655
:4067C0005F43BF18AF4206D0401CC0B2B042F6D36046002814D0114E271DC8190C366A46294600F006F900280AD168460088012808D030682946C01900F0D1F8002803D07C
:406800000120F8BD0020F8BDFCF762F930680F34015D491C0155FCF757F9F3E7700D0020F8B50F46002400F031F8002817D10C4900220B460C334A600EE021011D680E46C8
:406840006A501D680C36AA53B61C1D680F31AA551D68641C6A54E4B2BC42EED31A71F8BD700D002000280BD0C01C074A81085068890053884118994203D89368516018184F
:406880007047002070470000700D0020F8B5064600200F4D009029700C0121466846FEF74FFC00280CD129460C3100980860301B001F84B221466846FEF742FC002801D01B
:4068C000FF20F8BD6C800098A8600020F8BD0000700D0020F8B5002827DB19490978884223DA174C05010C342168485900281CD028460C30085A009028460E300E5C401C50
:406900000E5420682F1DC01900F064F800280CD12068002445590EE0094829460C300068C01900F03CF8002801D00120F8BD00982D18641CE4B2B442EED30020F8BD000010
:40694000700D002030B50D4604000BD0A800FFF789FF6060002805D000202570C0436080002030BD012030BD70B50D46040005D0002D03D00220205E002801DA012070BD8B
:40698000FCF7A6F80221615E60688900405828606088401E6080FCF797F8002070BD70B50D46040007D0002D05D002212078615E401E814201DB012070BDFCF789F8608888
:4069C000401C00B26080616880000D50FCF77CF8002070BD10B5040009D0227800216068FEF70EF90020C0436080002010BD012010BDF0B500231D46002802D00224045FA2
:406A00000AE00120F0BD46689F00F6598E4201D1012503E05B1CDBB29C42F4DA15700020F0BD00000148007870470000840D00207CB505460024FEF723F9A8796946087033
:406A400000A8062229460130FEF7D1F80021684604F0E8FD0C2804D0072804D01F2804D004E0022402E0042400E0272420467CBD10B502280BD0032802D0042809D102E08D
:406A800000F048F905E000F0F3F9FF2801D100F003FAFFF721FAFFF72DFA10BD10B500F02BFAFFF719FAFFF725FA10BD70B504460025FEF7E5F8002C06D0A079012803D8B9
:406AC000214602F0CDFC00E00125284670BD01460120002902D05020088000207047000001460120002905D003485422007850430880002070470000860D002010B5024650
:406B00000D49FE204870032410460CF0C5FE002810D10CF069FE00280CD105F019FB002808D100F0F3FB002804D104F0FFFF002800D10024204610BD840D002070B500255A
:406B4000044600280ED0A07901280BD8FEF798F8A0790028204602D003F05EF803E003F033F800E00125284670BD0000014610B50120002904D006220248FEF738F80020D6
:406B800010BD0000880D002001460120002903D0087802490870002070470000860D002010B5FFF799F9012801D1FFF79BF910BD38B504460120002C20D0617801291DD817
:406BC00000290BD0FF25E535FEF75AF80C4828180088C0B22070072803D00EE0FF25CD35F2E70020694608706846FFF797F969460878012801D108202070002038BD00008D
:406C000000102E40F8B504460120002C26D06178012902D92278092A20D8002905D0FF25E5352078092803D004E0FF25CD35F8E708202070FEF724F82078114F114E0828E8
:406C40000DD00020FFF7ACF970780128207810D00D4969180880FE2070700020F8BD0120FFF79EF90720B8810549203188800120F2E7B8810248217820308180EBE70000D3
:406C8000C0112E40840D002000102E4070B50E46050001D0002400E00C4C002C11D0E28A500609D5D107C90F022003F053F8E08A40218843E08204E0D107C90F012003F05E
:406CC00049F83146284602F027FD70BD70150020F8B50546002004460D4E009013E022466946284601F04AF80098002801D00CF0B5FDA878214602F0FDFAA878214602F066
:406D0000EBFA641CE4B2308AA042E8D8F8BD000028160020FEB54E4DFFF7DEF8012849D14C480078002845D002F07EFC002841D004F01AF900283DD0474C6078C00703D05D
:406D400000F0E6FC012835D0207E00287DD16078002600285BD0000706D540488089070B00F02EF9384370D13B484178684603F065FF044628793A4DA9784018C1B2A142D4
:406D800061D802F051FC00285FD0344860300089314F0190203702F09DFA6846008802F0C7FA02F057FB2F490988884203D10120FFF7D0F849E02C49012008702648807B2B
:406DC00000281BD00198002818D04037F87E002814D12248603000884000A0420AD96878002807D102F0E4FF2049088A03221202104308822878002800D02E7002F0C6FAA8
:406E00000120FFF7A1F800F0F5FB174C15E002F00BFC002819D0102402F01CFB214602F011FA02F085FA104C0120207002F0AEFA0020FFF789F800F0DDFB20780128B6D100
:406E4000FFF716F826700020FEBDFF20FEBD0000481500201C0D002050150020A0102E40940D0020A60D00208E0D0020E0112E4010B50848FF244078002809D102F0D4FBF9
:406E8000012805D1FEF716FF0720FFF763F80024204610BD5015002038B5FFF71DF8012801D0002038BD02F0BFFB00280AD0114C6078C00703D000F02BFC012802D0207E41
:406EC000002801D0FF2038BD617800290FD0684603F0B4FE022806D96846008802F028FA012002F059FA0320FFF734F8D9E70020F7E700005015002038B51E4CFEF7ECFFD9
:406F0000042813D0052811D0062812D003282AD007280AD100206946087002460120FEF7DBFEFEF7D9FF0128FBD138BD00F082FB38BD02F049FA00F07DFB02F0C5FA800789
:406F4000800F0228F4D10C4841880029F0D05B21095D0029ECD101210170A07D0140022002F0F8FE38BD02F033FA0120FEF7F2FF38BD000070150020940D0020F8B506465B
:406F8000002402F055FF0546304602F06BFF03460A480021068A0DE001228A401046174628401F40002803D0002F01D1224394B2491CC9B28E42EFD82046F8BD2816002013
:406FC00070B500252C460A4E03E0002C01D0002000E030460079002803D02046FFF7CEFF0543641C2406240EEFD0284670BD0000701500201CB50020694648706846FFF76B
:40700000D7FD01AA69460A20FEF766FE6946042008561CBD10B50C4601F082FA002809D00179002906D0C1788078224602F0FAFB002010BD022010BD0148007870470000C3
:40704000481500204030C07E002800D00120704700B500F001F800BD8C2148430749084A40186030417F491CC9B24177D289914201D300214177C8B270470000501500200F
:407080002816002013B501F04BFA04000BD001F0E8FD002807D0214601AA0A310620FEF71BFE00201CBD02201CBD000010B50C4601F036FA00280AD001F0D3FD002806D052
:4070C000224604490A20FEF707FE002010BD022010BD000031150020F3B581B0074601460026029802F09CFE0446002F01D0002500E0154D002D21D0284601F047FA032C1E
:4071000004D13946029802F0E7FE06463846029902F0E2F8032C06D0002C10D00121384601F03AFB03E03146384603F0D1F8284601F0C0FF0221284601F0D6FFFEBD384640
:40714000029902F0C9F8FEBD7015002010B5044603F008FD002801D00C2010BD2078611C02F062FCFF2801D01F2010BD02F0A8FCFF280AD02178621C02F036F8044821784C
:407180000068026B601C904710BD072010BD0000AC0D002010B503F0E5FC002801D00C2010BD02F023FC03480068C06A8047002010BD0000AC0D002070B50D460446102114
:4071C0000CF08CFA1021601806460CF087FA334610221946204603F0F3FC102130460CF07DFA02202870204604F0F8FB70BD0000F8B504464078217802028006870FE0783B
:407200001143A67809050002090D0643084601F087F900210546F2B2002812D0002C10D0022F0ED0032F0CD0002A0AD00279092A07D0002A05D0134A5A23527E1B5C9A42E6
